:100000000C942A000C94B1010C944A02189500003B
:1000100018950000189500000C94E3020C941F033F
:100020000C945B03189500001895000018950000CB
:10003000189500001895000018950000189500000C
:1000400018950000189500001895000018950000FC
:10005000189500008FE181BD87E181BD8FE58DBFDF
:10006000C8E3E0E34E2E84E08EBFD4E0F4E05F2EE0
:10007000EEEFF3E0A0E6B0E088278D933197E9F743
:1000800083E389B988E18AB9662400E010E020E0C2
:1000900030E0A0E6B0E00D931D932D933C9380E0FB
:1000A0008093640080E08093650080E08093660028
:1000B00080E090E0A7E6B0E08D939C9380E090E034
:1000C000A9E6B0E08D939C9380E090E0ABE6B0E0D1
:1000D0008D939C9380E090E0ADE6B0E08D939C938F
:1000E00070916F007F7770936F0080E090E0A0E7E1
:1000F000B0E08D939C93E2EBFCE00E94C1050E946E
:10010000C8050E9446010E9401050027AFE6B0E045
:100110008C9187FB0EF401E041E0041711F00C9480
:10012000420170916F007F7770936F00C4980E94B6
:1001300089040091640042E0049FA5E6B0E00C92BF
:10014000A0E2B4E0E0E6F0E00E9403060E94B905F8
:10015000E2EEFCE00E94C105A0E2B4E0E5E6F0E0DA
:100160000E940F060E94B905E4EEFCE00E94C10562
:10017000A0E2B4E0E2E7F0E00E9408060E94B905C0
:10018000ECEEFCE00E94C105A0E2B4E0E4E7F0E0A0
:100190000E9408060E94B905E6EFFCE00E94C10536
:1001A000A0E2B4E0E6E7F0E00E9408060E94B9058C
:1001B000EEEFFCE00E94C105A0E2B4E0E8E7F0E069
:1001C0000E9408060E94B905E6E0FDE00E94C10514
:1001D000A0E2B4E0EDE6F0E00E9400060E94B9055E
:1001E000E0E1FDE00E94C105A0E2B4E0EBE6F0E052
:1001F0000E9400060E94B905EAE1FDE00E94C105E7
:10020000A0E2B4E0EAE7F0E00E9408060E94B90527
:10021000E2E2FDE00E94C105A0E2B4E0ECE7F0E01C
:100220000E9408060E94B905EAE2FDE00E94C105AD
:10023000A0E2B4E0EEE7F0E00E9408060E94B905F3
:10024000E2E3FDE00E94C105A0E2B4E0E0E8F0E0F6
:100250000E9408060E94B905E0E7F0E0FA93EA93ED
:100260000E9465042296EAE3FDE00E94C105A0E237
:10027000B4E0E0E7F0E00E9400060E94B9050E94A9
:10028000C805C49A0C948500F894FFCFA2E8B0E0AA
:1002900084B78C938FE184BF80E08ABB80E087BB0A
:1002A000BC9A80E084BBA59AA29A80E081BB8D9A1B
:1002B0008C9A89B7846089BF89B7806189BF89B703
:1002C000886089BF85B78C7F826085BF85B7837F53
:1002D000886085BF8BB780648BBF8BB780688BBF0E
:1002E00080E08FBD8FB580688FBD8FB580628FBD78
:1002F0008FB582608FBD80E08EBD8EB580618EBD72
:100300008EB588608EBD8EB582608EBD8EB58160E3
:100310008EBD88E893E197BD86BD84EF91E0ABE6A2
:10032000B0E08D939C938AEF90E0ADE6B0E08D93C2
:100330009C93ABE6B0E08D919C919BBD8ABDADE6F0
:10034000B0E08D919C9199BD88BD70916F007064F3
:1003500070936F0070916F007F7D70936F00789441
:1003600008950F921F922F923F924F925F927F9229
:100370008F929F92AF92BF920F931F932F933F93B1
:100380004F935F936F937F938F939F93AF93BF939D
:10039000CF93DF93EF93FF938FB78F93E7E6F0E070
:1003A000FA93EA930E94650422960027BB27A3E3F1
:1003B0008C9180FB0EF401E041E0041711F00C94E5
:1003C000ED0181E090E0A0E8B0E08D939C93A4E77C
:1003D000B0E00E9462050C94F70180E090E0A0E894
:1003E000B0E08D939C93A4E7B0E00E946805ACE771
:1003F000B0E00D911C9143E050E00E946E05ACE727
:10040000B0E00D931C93ACE7B0E00D911C91A7E612
:10041000B0E04D915C91040F151FACE7B0E00D9377
:100420001C93ACE7B0E00D911C91A3E8B0E04D91B6
:100430005C91041B150BACE7B0E00D931C9392E0AC
:10044000ACE7B0E00E94DE05A7E6B0E08D919C919C
:10045000A3E8B0E08D939C938F918FBFFF91EF91B4
:10046000DF91CF91BF91AF919F918F917F916F91CC
:100470005F914F913F912F911F910F91BF90AF903E
:100480009F908F907F905F904F903F902F901F9004
:100490000F9018950F921F922F923F924F925F925A
:1004A0007F928F929F92AF92BF920F931F932F9341
:1004B0003F934F935F936F937F938F939F93AF93EC
:1004C000BF93CF93DF93EF93FF938FB78F93E9E6BB
:1004D000F0E0FA93EA930E94650422960027BB2776
:1004E000A3E38C9181FB0EF401E041E0041711F0CD
:1004F0000C94860280E090E0AEE7B0E08D939C9390
:10050000A2E7B0E00E9468050C94900281E090E0C0
:10051000AEE7B0E08D939C93A2E7B0E00E94620545
:10052000AAE7B0E00D911C9143E050E00E946E05F7
:10053000AAE7B0E00D931C93AAE7B0E00D911C91DF
:10054000A9E6B0E04D915C91040F151FAAE7B0E059
:100550000D931C93AAE7B0E00D911C91A5E8B0E0C3
:100560004D915C91041B150BAAE7B0E00D931C9311
:1005700092E0AAE7B0E00E94DE05A9E6B0E08D9126
:100580009C91A5E8B0E08D939C938F918FBFFF91D4
:10059000EF91DF91CF91BF91AF919F918F917F911B
:1005A0006F915F914F913F912F911F910F91BF904C
:1005B000AF909F908F907F905F904F903F902F9043
:1005C0001F900F9018950F921F922F923F924F926B
:1005D0005F927F928F929F92AF92BF920F931F93E1
:1005E0002F933F934F935F936F937F938F939F933B
:1005F000AF93BF93CF93DF93EF93FF938FB78F9317
:10060000AD988F918FBFFF91EF91DF91CF91BF9107
:10061000AF919F918F917F916F915F914F913F919A
:100620002F911F910F91BF90AF909F908F907F90CF
:100630005F904F903F902F901F900F9018950F92C2
:100640001F922F923F924F925F927F928F929F9232
:10065000AF92BF920F931F932F933F934F935F934C
:100660006F937F938F939F93AF93BF93CF93DF93BA
:10067000EF93FF938FB78F93AA988F918FBFFF91BE
:10068000EF91DF91CF91BF91AF919F918F917F912A
:100690006F915F914F913F912F911F910F91BF905B
:1006A000AF909F908F907F905F904F903F902F9052
:1006B0001F900F9018950F921F922F923F924F927A
:1006C0005F927F928F929F92AF92BF920F931F93F0
:1006D0002F933F934F935F936F937F938F939F934A
:1006E000AF93BF93CF93DF93EF93FF938FB78F9326
:1006F000AD9AAA9A0027AFE6B0E08C9186FB0EF483
:1007000001E040E0041711F00C949B03ABE6B0E06D
:100710000E946205ABE6B0E00D911C91043F51E0F0
:10072000150710F40C94990370916F007064709326
:100730006F000C94BB030027AFE6B0E08C9186FB02
:100740000EF401E041E0041711F00C94BB03ABE69A
:10075000B0E00E946805ABE6B0E00D911C910A3F45
:1007600050E0150718F011F00C94BB0370916F0066
:100770007F7B70936F000027AFE6B0E08C9185FB24
:100780000EF401E040E0041711F00C94DC03ADE638
:10079000B0E00E946205ADE6B0E00D911C91043F0F
:1007A00051E0150710F40C94DA0370916F00706239
:1007B00070936F000C94FC030027AFE6B0E08C91BF
:1007C00085FB0EF401E041E0041711F00C94FC03EA
:1007D000ADE6B0E00E946805ADE6B0E00D911C9179
:1007E0000A3F50E0150718F011F00C94FC037091CB
:1007F0006F007F7D70936F00ABE6B0E08D919C91B0
:100800009BBD8ABDADE6B0E08D919C9199BD88BD40
:10081000A4E6B0E08C918F5F8C930091640002336A
:1008200011F00C94280480E080936400A0E6B0E00E
:100830000D911D912D913C9141E050E060E070E000
:100840000E94ED05A0E6B0E00D931D932D933D931E
:10085000A6E6B0E08C918F5F8C93009166000A3021
:1008600011F00C943B0480E08093660070916F005F
:10087000706870936F00A7E8B0E00D911C914CE98F
:1008800050E0040F151FA7E8B0E00D931C938F9163
:100890008FBFFF91EF91DF91CF91BF91AF919F916A
:1008A0008F917F916F915F914F913F912F911F9108
:1008B0000F91BF90AF909F908F907F905F904F90DF
:1008C0003F902F901F900F90189582E00E94D805BE
:1008D000A9E8B0E08D919C91A881B9818D939C93FA
:1008E00095E0A881B9810E94DE05A7E8B0E00D91EE
:1008F0001C91A881B9814D915C91040F151FAA81AB
:10090000BB810D931C9382E0481A8827580A2296CF
:1009100008950EE41EE0ACE7B0E04D915C910E94BA
:100920007305A8E7B0E04D935C93A0E8B0E00D91AB
:100930001C91003050E0150711F00C94AB04A8E7AF
:10094000B0E00D911C914FEF5FEF0E946E05A8E79C
:10095000B0E00D931C930EE41EE0AAE7B0E04D91C9
:100960005C910E947305A6E7B0E04D935C93AEE7FF
:10097000B0E00D911C91013050E0150711F00C947E
:10098000CD04A6E7B0E00D911C914FEF5FEF0E9400
:100990006E05A6E7B0E00D931C930895E4E4FDE036
:1009A0000E94C105A0E2B4E0E8E7F0E00E9408067A
:1009B0000E94B905EEE4FDE00E94C105A0E2B4E0AA
:1009C000E0E8F0E00E9408060E94B905E6E5FDE0D7
:1009D0000E94C105A0E2B4E0E6E7F0E00E9408064C
:1009E0000E94B905E0E6FDE00E94C105A0E2B4E086
:1009F000EEE7F0E00E9408060E94B9050E94C805D3
:100A00000895E8E6FDE00E94C1050E94C805A2E83D
:100A1000B0E00C9104FB00270EF401E041E0041764
:100A200011F00C941905E6E7FDE00E94C1050E9453
:100A3000C805A2E8B0E00C9103FB00270EF401E02A
:100A400041E0041711F00C942B05E2E8FDE00E9450
:100A5000C1050E94C805A2E8B0E00C9102FB002786
:100A60000EF401E041E0041711F00C943D05E2E9B9
:100A7000FDE00E94C1050E94C805A2E8B0E00C910B
:100A800001FB00270EF401E041E0041711F00C9483
:100A90004F05E2EAFDE00E94C1050E94C805A2E8F8
:100AA000B0E00C9100FB00270EF401E041E00417D8
:100AB00011F00C946105E2EBFDE00E94C1050E947B
:100AC000C8050895ED91FC913196FC93EE9308953D
:100AD000ED91FC913197FC93EE93089508D03DD0B1
:100AE00000FC10D0089503D01ED001F8F9CF0024E7
:100AF000E89457FF02C009D0689400F80BD010F8B2
:100B00000124089502D009D00895509540954F5F73
:100B10005F4F0895E89417FF0895009510950F5FB3
:100B20001F4F68940895352F242FE894452B11F416
:100B300068940895512F402F0027112780E1440F1A
:100B4000551F001F111F021B130B416018F4020FE9
:100B5000131F4E7F8A9599F708950F92049F202CBA
:100B6000312C419F300C509F030C022D102D0F9003
:100B70000895A0E2B4E08D91882311F00CD0FBCF52
:100B800008950E94E905802D11F005D0FACF08954F
:100B90008DE001D08AE05D9BFECF8CB9089531973E
:100BA000F1F70895689462F80895E89462F808955A
:100BB0005A924A92480E8827581E0895903041F064
:100BC0000D911C91169507959A95E1F71C930E933C
:100BD0000895C895319600200895040F151F261F0B
:100BE000371F0895000F111F221F331F089500950E
:100BF0001095209530950F5F1F4F2F4F3F4F089551
:100C0000019110810EC001911191219130810BC091
:100C10000191108117FF05C03FEF2FEF04C0008145
:100C200011272227332737FF03C0E1DF8DE28D93A1
:100C3000CF93DF93CF92DF92EF92AA24BB24CC24F0
:100C4000DD24EE2440E2CAE0DD2755E093E388810D
:100C5000890F87FD9F7083FD907F891B89935A952B
:100C6000A9F7C0DFAA1CBB1CCC1CDD1CEE1C4A95DE
:100C700051F7E894EFE0FF2782910ED0EB30E0F7D8
:100C80001EF068948A2D0CD088278D93EF90DF900A
:100C9000CF90DF91CF910895982F829501D0892F21
:100CA0008F70805D26F0803309F4089568948D93E9
:100CB000089541746D656C2041544D45474131366E
:100CC000202F2041524320312E312057572D3031D3
:100CD000204D6F6E69746F72204578616D706C6520
:100CE00000002E00206C6469737420002C20726454
:100CF0006973742000002C206C73706420002C2019
:100D00007273706420002C206F75745F4C2000009B
:100D10002C206F75745F522000002C206C7065725F
:100D200020002C207270657220002C204C646972A7
:100D300020002C205264697220002C207469636B9F
:100D400073200000456E63537064522000002052EF
:100D5000467764200000456E635370644C200000A9
:100D6000204C467764200000526573657420536FF1
:100D7000757263653A004A54414720526573657441
:100D800000005761746368646F672052657365740F
:100D9000000042726F776E6F7574205265736574D0
:100DA000000045787465726E616C205265736574DD
:100DB0000000506F7765722D6F6E205265736574F9
:020DC000000031
:00000001FF
