:100000000C942A000C94DB000C944E010C944500D7
:100010000C9445000C9445000C94BC010C94C70151
:100020000C94D2010C9445000C9445000C944500AE
:100030000C9445000C9445000C9445000C9445002C
:100040000C9445000C9445000C9445000C9445001C
:100050000C94450011241FBECFE5D4E0DEBFCDBF18
:1000600011E0A0E6B0E0E8E6F0E102C005900D92F4
:10007000A234B107D9F711E0A2E4B1E001C01D92AA
:10008000A437B107E1F70C94C8020C94000084B7C0
:10009000809347018FE184BF82EA8FBD8BE18EBDE3
:1000A00088E893E197BD86BD84EF91E090936B0162
:1000B00080936A018AEF90E09093570180935601F4
:1000C00080916A0190916B019BBD8ABD8091560120
:1000D0009091570199BD88BD81E08093690110928C
:1000E000640180E381BB84E284BB8CE189BF8AE048
:1000F00085BF80EC8BBF88E08AB910BC89E190E0B5
:1001000089B986E880BD789440E050E0BA018CE877
:1001100090E00E944B030895CF93C82F8A3019F0C6
:100120005D9BFECF04C08DE00E948C00F9CFCCB95E
:1001300080E090E0CF9108958091470184FD22C036
:1001400083FD19C082FD10C081FD07C080FF0895A6
:1001500080E690E00E94A60308958FE690E00E945A
:10016000A60380914701F2CF8EE790E00E94A6039C
:1001700080914701E9CF8DE890E00E94A60380912D
:100180004701E0CF8CE990E00E94A60380914701EF
:10019000D7CF08958CB59DB5969587959295829504
:1001A0008F7089279F7089272091580130915901BC
:1001B000820F931F08951F920F920FB60F92112472
:1001C0002F933F934F935F936F937F938F939F935F
:1001D000AF93BF93EF93FF930E94CA00AC0183B328
:1001E00099279C012170307080FF12C081E090E05F
:1001F0009093490180934801809165019091660137
:10020000A0916701B09168010196A11DB11D0FC0B9
:1002100030934901209348018091650190916601D6
:10022000A0916701B09168010197A109B10980937C
:10023000650190936601A0936701B09368012091D6
:100240004F0130915001C901880F991F820F931FF0
:1002500020914A0130914B01BA01621B730B860F4A
:10026000971F9695879596958795909350018093C3
:100270004F0150934B0140934A01FF91EF91BF9181
:10028000AF919F918F917F916F915F914F913F912E
:100290002F910F900FBE0F901F9018951F920F92E5
:1002A0000FB60F9211242F933F934F935F936F9349
:1002B0007F938F939F93AF93BF93EF93FF930E948E
:1002C000CA00AC01999B10C01092550110925401C4
:1002D0008091600190916101A0916201B0916301F0
:1002E0000197A109B10911C081E090E090935501F7
:1002F000809354018091600190916101A09162010D
:10030000B09163010196A11DB11D8093600190938E
:100310006101A0936201B093630120914D0130917E
:100320004E01C901880F991F820F931F20915A0116
:1003300030915B01BA01621B730B860F971F969574
:1003400087959695879590934E0180934D01509394
:100350005B0140935A01FF91EF91BF91AF919F9143
:100360008F917F916F915F914F913F912F910F905E
:100370000FBE0F901F9018951F920F920FB60F92FD
:100380001124AD980F900FBE0F901F9018951F92DB
:100390000F920FB60F921124AA980F900FBE0F90D4
:1003A0001F9018951F920F920FB60F9211242F9342
:1003B0008F939F93AF93BF9385B3846285BB8091E6
:1003C00069019927009741F1019709F46EC0809166
:1003D000640199270097C1F1019709F47AC08091CF
:1003E0006A0190916B019BBD8ABD809156019091ED
:1003F000570199BD88BD80914C018F5F80934C015E
:1004000080914C018333D9F1809142018F5F863016
:1004100081F18093420171C080916A0190916B01DA
:10042000019690936B0180936A0180916A0190918B
:100430006B01845F914058F281E080936901809163
:1004400064019927009741F68091560190915701D8
:100450000196909357018093560180915601909197
:100460005701845F914008F4BACF81E08093640122
:10047000B6CF1092420181E0809351013EC01092AC
:100480004C0180915C0190915D01A0915E01B09161
:100490005F010196A11DB11D80935C0190935D01E8
:1004A000A0935E01B0935F01AFCF80916A019091FC
:1004B0006B01019790936B0180936A0180916A01AF
:1004C00090916B018B3F910508F081CF10926901EB
:1004D0007ECF8091560190915701019790935701DB
:1004E0008093560180915601909157018B3F910561
:1004F00008F075CF1092640172CF809158019091ED
:10050000590184569F4F9093590180935801BF9190
:10051000AF919F918F912F910F900FBE0F901F90D1
:10052000189520914F01309150018DE49EE0B90162
:100530000E94FE07709353016093520198990BC07B
:100540008091520190915301909581959F4F909386
:1005500053018093520120914D0130914E018DE461
:100560009EE0B9010E94FE0770936D0160936C01DB
:10057000999B0BC080916C0190916D019095819534
:100580009F4F90936D0180936C0108950895089595
:10059000CFE5D4E0DEBFCDBF0E94470087EA90E000
:1005A0000E94A6030E949C0007ED10E0CFE1D1E07D
:1005B000809151018823E1F3109251010E94910230
:1005C00080916A0190916B019F938F938091560166
:1005D000909157019F938F93809152019091530175
:1005E0009F938F9380916C0190916D019F938F9356
:1005F0008091650190916601A0916701B0916801B9
:10060000BF93AF939F938F9380916001909161010D
:10061000A0916201B0916301BF93AF939F938F93B9
:1006200080914C01992787FD9095880F991F9F9382
:100630008F9380915C0190915D01A0915E01B091DA
:100640005F01BF93AF939F938F931F930F930E946C
:10065000910380914F01909150019F938F938091CE
:100660004D0190914E019F938F930E94CA009F93DA
:100670008F93DF93CF930E9491038DB79EB780969F
:100680000FB6F8949EBF0FBE8DBF80915101882395
:1006900009F48ECF91CF0F931F93CF93DF938C01EB
:1006A000EB010097B9F16CE070E081E090E00E940E
:1006B0009206FC01009781F1209771F0C287D387E1
:1006C00021E02383A0916E01B0916F01AB2B21F447
:1006D00090936F0180936E0101151105C9F0008799
:1006E0001187038102600383A0917001B0917101B1
:1006F000AB2B71F4F0937101E0937001C091720122
:10070000D0917301CD2B21F4F0937301E09372012A
:10071000CF0102C0672B39F6DF91CF911F910F9166
:100720000895CF93DF93CDB7DEB7A5E0B0E0AC0F6F
:10073000BD1F2D913D91AD01B90180917001909146
:1007400071010E94DD03DF91CF9108950F931F93F4
:10075000CF93DF93EC0100E010E0E0917001F091A5
:100760007101238121FF22C089918823A1F0008497
:10077000F185E02D0995892B11F00FEF1FEF89917D
:10078000882329F0E0917001F0917101F0CFE091A0
:100790007001F09171010084F185E02D8AE00995E6
:1007A000892B11F00FEF1FEFC80102C08FEF9FEFF1
:1007B000DF91CF911F910F9108952F923F924F9209
:1007C0005F926F927F928F929F92AF92BF92CF92E1
:1007D000DF92EF92FF920F931F93CF93DF93CDB7EA
:1007E000DEB762970FB6F894DEBF0FBECDBFAA2466
:1007F000BB2465014C016D877E874F87588B44244D
:100800005524FC0146825782838181FD5BC28FEFB4
:100810009FEF6FC240FE44C2862D80538A30E0F4C1
:10082000F0E36F1641F42A89222329F4772019F482
:1008300080E091E08BC08AE09A89989F902D1124E6
:10084000892F860D80538A8B882314F4EFE7EA8B77
:1008500043FC38C27A8836C243FE05C0FA89FF23BA
:1008600011F421E02A8B862D992787FD90958836F3
:10087000910554F5853691050CF06BC088359105CE
:1008800009F4D3C089359105B4F48B32910509F48C
:1008900042C08C32910544F48032910509F43FC086
:1008A000839709F442C0F2C18D329105D9F18E9738
:1008B00009F440C0EBC18336910509F454C0843675
:1008C000910509F478C0E2C18037910509F4A5C00B
:1008D0008137910584F48C369105B1F18D369105FF
:1008E0002CF48936910509F466C0D0C18F36910584
:1008F00009F490C0CBC18537910509F498C08637BB
:10090000910524F483379105B9F1C0C18837910569
:1009100009F48BC0BBC180E190E0482A592AE0E28B
:10092000F0E005C080E890E011C0E0E4F0E04E2A7D
:100930005F2AC8C188E090E0482A592AEFEFFEEF0D
:100940004E225F221A8ABEC184E090E0482A592ACA
:10095000B9C10F2EFFE3AF2EF02D7A940F2EF3E6E0
:100960006F2EF02D3AC1EF85F889CF0102968F875F
:10097000988BA0807A9431C1EF85F889CF010296D7
:100980008F87988BA080B18043FE0BC0EA898E2FA1
:10099000992787FD9095BC01C5010E94F307898BBB
:1009A00007C0F50101900020E9F73197EA19E98BBA
:1009B000F9897F1A12C142FE0BC0EF85F889CF0179
:1009C00004968F87988B20813181428153810DC09D
:1009D000EF85F889CF0102968F87988B808191816E
:1009E0009C01442737FD4095542F59016A01552336
:1009F00064F4E2E0F0E04E2A5F2AD094C094B09410
:100A0000A094A11CB11CC11CD11C8FEB9FEF4822EC
:100A100059222BC098E0998B0AC0E0E4F0E04E2AFE
:100A20005F2A0F2EF8E76F2EF02DF0E1F98B42FED2
:100A30000BC0EF85F889CF0104968F87988B2081B2
:100A40003181428153810BC0EF85F889CF01029635
:100A50008F87988B808191819C014427552759016C
:100A60006A01EFECFFEF4E225F221E010894211C69
:100A7000311CF989EF2EFF2400271127C601B5018B
:100A8000A80197010E941208DC01CB01F1018083CB
:100A90008A301CF0860D815203C0F1018081805D97
:100AA000F10181931F01C601B501A80197010E94C0
:100AB000120859016A012115310541055105F1F668
:100AC000CE010196A22CA81AC20182739070892BC4
:100AD00009F07A9446FE0FC0872D992787FD9095DF
:100AE000F989F03131F40F2EFEEF7F2EF02D780EC4
:100AF00002C0782E7A9443FE12C08A89282F3327A9
:100B000027FD30958A2D9927821793072CF0E7EF60
:100B1000FFEF4E225F2203C0FA89FA19FA8B43FED7
:100B200003C02A89721A01C07A18C20180789170B4
:100B3000892B69F4872D7A9418164CF4B40180E25D
:100B400090E00E94AE06872D7A941816BCF341FE01
:100B500004C0B4018DE290E00BC044FE04C0B401B7
:100B60008BE290E005C045FE05C0B40180E290E054
:100B70000E94AE0646FE0FC0B40180E390E00E94E2
:100B8000AE068989803139F4862D992787FD9095A5
:100B9000B4010E94AE0650FE0DC0872D7A9418163F
:100BA0004CF4B40180E390E00E94AE06872D7A9465
:100BB0001816BCF343FE11C08A89982F91509A8B66
:100BC00018165CF4B40180E390E00E94AE068A89B6
:100BD000E82FE150EA8B1816ACF3842D807869F485
:100BE000872D7A9418164CF4B40180E290E00E94AC
:100BF000AE06872D7A941816BCF3F3E66F1641F40F
:100C00008A2D992787FD9095B4010E94AE062DC0CC
:100C100023E76216B1F489898150898B8F3F29F1CE
:100C2000F5018081992787FD90950894A11CB11C3E
:100C3000B4010E94AE0699899150998B9F3F81F72C
:100C400014C0CE0101962816390679F08E010F5F87
:100C50001F4FF10182911F01992787FD9095B401E3
:100C60000E94AE0620163106A1F7842D8078A9F0E7
:100C7000872D7A9418168CF4B40180E290E00E94DB
:100C8000AE06872D7A941816BCF307C0862D9927D7
:100C900087FD9095B4010E94AE064424552412C0ED
:100CA000F5E26F1641F44424552443941A8A7A8855
:100CB0002AE0298B07C0862D992787FD9095B401DE
:100CC0000E94AE06F401838183FF08C0ED85FE8596
:100CD000CF0101968D879E87649005C0ED85FE85C6
:100CE0006190ED87FE87662009F094CDF40186813E
:100CF000978162960FB6F894DEBF0FBECDBFDF912D
:100D0000CF911F910F91FF90EF90DF90CF90BF9008
:100D1000AF909F908F907F906F905F904F903F909B
:100D20002F9008950F931F93CF93DF93869F800199
:100D3000879F100D969F100D1124C8010E94E10697
:100D4000EC01009731F0A80160E070E00E94EC0730
:100D5000CE01DF91CF911F910F9108950F931F93B3
:100D6000CF93DF938C01EB018B81992781FF22C008
:100D700082FF14C02E813F814C815D81241735078D
:100D80003CF4A881B9810D93A883B9832E813F815A
:100D90002F5F3F4F2E833F83C8010EC0E885F98542
:100DA000802F0995892B31F4EE81FF813196EE83F6
:100DB000FF83F2CF8FEF9FEFDF91CF911F910F91C4
:100DC0000895CF93DF939C01029710F422E030E066
:100DD00040E050E0E0914501F0914601BF01DA01A9
:100DE0003097B1F0808191818217930709F485C013
:100DF0002817390738F44115510519F0841795075C
:100E000008F4AC01DF010280F381E02D309751F747
:100E100041155105B9F0DA01A21BB30B149708F480
:100E20009A01FB01A0E0B0E0672B61F06081718165
:100E30006417750709F43FC0DF010280F381E02DDC
:100E40003097A1F74091430150914401411551055C
:100E500041F440913D0150913E0150934401409333
:100E60004301A0913F01B09140011097D9F0FA01E0
:100E7000BD01641B750B6217730788F0D9011296C8
:100E80006A177B0760F0420F531F4E5F5F4F50930E
:100E900044014093430121933193CF0137C080E057
:100EA00090E034C0ADB7BEB7E0913B01F0913C019A
:100EB000AE1BBF0BDCCF2417350769F0421B530B69
:100EC000EF01C40FD51F29933993425050404083FE
:100ED0005183CE011BC0109749F0228133811296B5
:100EE0002D933C931397CF01029610C042815381FA
:100EF0005093460140934501F6CF109771F7228138
:100F000033813093460120934501EDCFDF91CF919E
:100F10000895CF93DF93009709F45BC0DC0112972B
:100F200012961D921C921397809145019091460153
:100F30000097D1F1FC0140E050E0EA17FB0710F503
:100F4000AF010280F381E02D3097B9F7EA01AA835F
:100F5000BB83FA01329628813981E20FF31FEA1729
:100F6000FB07B9F56D917C911197260F371F2E5F06
:100F70003F4F2883398312964D915C9113974A8392
:100F80005B8327C0ED011296ED93FC9313972D918F
:100F90003C911197C20FD31FCE0102968E179F0767
:100FA00041F04115510591F6B0934601A0934501DA
:100FB00010C06A817B81260F371F2E5F3F4F2D9314
:100FC0003C9311972281338112962D933C93139772
:100FD000E8CFDF91CF910895DC0101C06D934150BE
:100FE0005040E0F70895FC016150704001900110FD
:100FF000D8F7809590958E0F9F1F0895AA1BBB1B55
:1010000051E107C0AA1FBB1FA617B70710F0A61B08
:10101000B70B881F991F5A95A9F780959095BC0129
:10102000CD010895A1E21A2EAA1BBB1BFD010DC024
:10103000AA1FBB1FEE1FFF1FA217B307E407F50788
:1010400020F0A21BB30BE40BF50B661F771F881F64
:10105000991F1A9469F760957095809590959B01FA
:08106000AC01BD01CF010895B0
:10106800506F7765722D6F6E2052657365740045F9
:10107800787465726E616C20526573657400427293
:101088006F776E6F7574205265736574005761745D
:101098006368646F67205265736574004A544147FA
:1010A800205265736574000A41746D656C20415463
:1010B8004D4547413136202F2041524320312E31B2
:1010C8002057572D3031204D6F6E69746F7220454F
:1010D80078616D706C65002530336C642E25303274
:1010E80064206C6469737420256C642C20726469B4
:1010F800737420256C642C206C7370642025642C18
:1011080020727370642025642C206F75745F4C20E6
:1011180025642C206F75745F522025642C20007480
:1011280069636B732025752C206C706572202564AB
:101138002C20727065722025640A0020007401005A
:021148000000A5
:00000001FF
