:100000000C942A000C94CC000C9438010C944500FC
:100010000C9445000C9445000C94A4010C94AF0181
:100020000C94BA010C9445000C9445000C944500C6
:100030000C9445000C9445000C9445000C9445002C
:100040000C9445000C9445000C9445000C9445001C
:100050000C94450011241FBECFE5D4E0DEBFCDBF18
:1000600012E0A0E6B0E0E2E8F9E102C005900D92EE
:10007000AC34B107D9F712E0ACE4B2E001C01D9294
:10008000A83AB107E1F70C9478070C94000084B704
:10009000809352028FE184BF82EA8FBD8BE18EBDD7
:1000A00088E893E197BD86BD87E791E090939A0237
:1000B0008093990290937202809371029BBD8ABDD6
:1000C00099BD88BD80E381BB84E284BB8CE189BF9C
:1000D0008AE085BF80EC8BBF88E08AB910BC89E1DB
:1000E00090E089B986E880BD789440E050E0BA019C
:1000F0008DE790E00E948B070895CF93C82F8A3038
:1001000019F05D9BFECF04C08DE00E947D00F9CF09
:10011000CCB980E090E0CF9108958091520284FDA7
:1001200022C083FD19C082FD10C081FD07C080FF81
:10013000089580E690E00E94E60708958FE690E03B
:100140000E94E60780915202F2CF8EE790E00E9473
:10015000E60780915202E9CF8DE890E00E94E60721
:1001600080915202E0CF8CE990E00E94E6078091F6
:100170005202D7CF08958CB59DB5969587959295E7
:1001800082958F7089279F708927209177023091FF
:100190007802820F931F08951F920F920FB60F924D
:1001A00011242F933F934F935F936F937F938F937C
:1001B0009F93AF93BF93EF93FF930E94BB00AC015B
:1001C000989B0FC081E080935A0280918F0290919A
:1001D0009002A0919102B09192020196A11DB11DD1
:1001E0000DC010925A0280918F0290919002A091BE
:1001F0009102B09192020197A109B10980938F02F7
:1002000090939002A0939102B09392022091670282
:1002100030916802C901880F991F820F931F2091A6
:100220005B0230915C02BA01621B730B860F971F51
:100230009695879596958795909368028093670227
:1002400050935C0240935B0281E080937E02FF91B9
:10025000EF91BF91AF919F918F917F916F915F913E
:100260004F913F912F910F900FBE0F901F901895B7
:100270001F920F920FB60F9211242F933F934F931B
:100280005F936F937F938F939F93AF93BF93EF93FE
:10029000FF930E94BB00AC01999B0EC010926E02AE
:1002A0008091890290918A02A0918B02B0918C0278
:1002B0000197A109B1090EC081E080936E0280917F
:1002C000890290918A02A0918B02B0918C020196D2
:1002D000A11DB11D8093890290938A02A0938B0285
:1002E000B0938C022091650230916602C901880F9B
:1002F000991F820F931F20917F0230918002BA01D3
:10030000621B730B860F971F969587959695879519
:1003100090936602809365025093800240937F021F
:1003200081E080935D02FF91EF91BF91AF919F912A
:100330008F917F916F915F914F913F912F910F908E
:100340000FBE0F901F9018951F920F920FB60F922D
:100350001124AD980F900FBE0F901F9018951F920B
:100360000F920FB60F921124AA980F900FBE0F9004
:100370001F9018951F920F920FB60F9211242F9372
:100380003F938F939F93AF93BF9385B3846285BB55
:10039000809159028823D1F0109259028091A102D4
:1003A000882379F58091990290919A0289589E4FFD
:1003B0009BBD8ABD80917B02882389F18091710267
:1003C0009091720289589E4F99BD88BD91E090939B
:1003D000830280914D02891709F448C090934D0221
:1003E000809160028F5F809360028091600283330E
:1003F00039F180914C028F5F8630E1F080934C029E
:1004000041C02091990230919A0287E791E0821BC6
:10041000930B9BBD8ABD80917B02882379F6209146
:1004200071023091720287E791E0821B930B99BDB4
:1004300088BDCCCF10924C0281E080936B0222C029
:10044000109260028091840290918502A0918602B0
:10045000B09187020196A11DB11D809384029093F3
:100460008502A0938602B0938702C3CF10924D02FB
:100470008091570290915802019690935802809370
:100480005702AECF809177029091780284569F4FA9
:100490009093780280937702BF91AF919F918F9153
:1004A0003F912F910F900FBE0F901F901895809144
:1004B0007E02882379F020916702309168028DE4F2
:1004C0009EE0B9010E945D0C70936D0260936C0216
:1004D000989B1FC080915D028823D1F02091650216
:1004E000309166028DE49EE0B9010E945D0C70932C
:1004F000A00260939F02999B0BC080919F029091F4
:10050000A002909581959F4F9093A00280939F02A7
:10051000089580916C0290916D02909581959F4F06
:1005200090936D0280936C02D5CF089580915A020A
:10053000282F332780916702909168029F938F93B1
:100540003F932F9380916C0290916D029F938F93B4
:1005500087EA90E09F938F930E94D10780916E026B
:10056000282F332780916502909166029F938F9385
:100570003F932F9380919F029091A0029F938F931E
:1005800089EC90E09F938F930E94D1078DB79EB71F
:1005900040960FB6F8949EBF0FBE8DBF08956817A2
:1005A000790714F4CB010895709561957F4F8617F4
:1005B00097070CF4CB0108950895261737074807CD
:1005C00059071CF4CA01B90108955095409530951A
:1005D00021953F4F4F4F5F4F621773078407950771
:1005E00014F4CA01B90108950895CF93DF93EB0184
:1005F0006FE370E00E94CF022091530230915402C9
:1006000037FD02C097FD19C037FD15C09093540205
:10061000809353026FE370E0CE010E94CF02EC01A1
:1006200080917C0290917D0297FD02C0D7FD0CC0A5
:1006300097FF0EC007C097FDE9CF1092700210928D
:100640006F02E4CFD7FD04C01092740210927302BF
:10065000D0937D02C0937C02DF91CF910895809169
:10066000A10299279F938F938091990290919A026A
:100670009F938F938091690290916A029F938F93C9
:1006800080916F02909170029F938F93809193025B
:10069000909194029F938F938BEE90E09F938F9312
:1006A0000E94D10780917B0299279F938F9380911D
:1006B0007102909172029F938F9380918D0290911D
:1006C0008E029F938F9380917302909174029F93F7
:1006D0008F9380918102909182029F938F938AE100
:1006E00091E09F938F930E94D1078DB79EB7489654
:1006F0000FB6F8949EBF0FBE8DBF08959C01CB012D
:1007000066E070E00E945D0CCB0165E170E0820F55
:10071000931F0E94CF0208959C01220F331F220FC6
:10072000331F220F331F281B390B37FF02C0295FED
:100730003F4FC9019595879595958795959587958F
:100740000895EF92FF920F931F93109283020E94DD
:10075000570280917E02882309F444C010927E02E1
:10076000E0905302F090540280916C0290916D02DF
:100770008701081B190B1093940200939302B80190
:1007800080916F02909170020E947E039C01909371
:10079000700280936F02C701880F991F880F991FFD
:1007A000880F991F6AE070E00E945D0C70936A02E6
:1007B00060936902060F171FC801820F931F0E94E2
:1007C0008C039C01AC0197FD60C081E08093A10285
:1007D0004E3751050CF44FC08DE790E090939A028C
:1007E0008093990280915D02882309F45CC0109285
:1007F0005D02E0907C02F0907D0280919F029091DA
:10080000A0028701081B190B10938202009381023A
:10081000B80180917302909174020E947E039C0142
:100820009093740280937302C701880F991F880FF9
:10083000991F880F991F6AE070E00E945D0C709309
:100840008E0260938D02060F171FC801820F931F3F
:100850000E948C039C01AC0197FD1EC081E0809337
:100860007B024E37510564F08DE790E09093720261
:100870008093710218C030939A0220939902B2CFEC
:1008800030937202209371020EC01092A102309533
:1008900021953F4FA9019CCF10927B023095219565
:1008A0003F4FA901DECF81E0809359021F910F9144
:1008B000FF90EF900895FC0110928802222399F195
:1008C00080915502909156028E0F9F1F9093560271
:1008D0008093550280919D0290919E02860F971FF2
:1008E00090939E0280939D02BA01CA010E94F50274
:1008F00081E080935D0280937E02209153023091CB
:1009000054023093960220939502A901C90137FD44
:100910001CC0452B89F481E090E0909364028093A1
:100920006302C9011AC0F0935602E0935502709316
:100930009E0260939D02D8CF9093640280936302DD
:1009400037FD09C081E090E008C088279927821B05
:10095000930BAC01DECF8FEF9FEF90939C028093BF
:100960009B02909362028093610210927602109231
:100970007502109298021092970208950F931F9398
:1009800089E491E00E94E60720915A028091790261
:1009900090917A029F938F93822F99279F938F93A1
:1009A00080918F0290919002A0919102B091920259
:1009B000BF93AF939F938F9380915502909156026E
:1009C0009F938F938DE691E09F938F930E94D10721
:1009D0002091A102822F99279F938F938091990252
:1009E00090919A029F938F93809153029091540219
:1009F0009F938F9380919702909198029F938F93EA
:100A000001E811E01F930F930E94D10720916E021D
:100A100080915E0290915F029F938F93822F99271E
:100A20009F938F938091890290918A02A0918B026B
:100A3000B0918C02BF93AF939F938F9380919D024F
:100A400090919E029F938F9382E991E09F938F9361
:100A50000E94D10720917B028DB79EB782960FB678
:100A6000F8949EBF0FBE8DBF822F99279F938F93BF
:100A700080917102909172029F938F9380917C027A
:100A800090917D029F938F93809175029091760251
:100A90009F938F931F930F930E94D1078DB79EB79B
:100AA0000A960FB6F8949EBF0FBE8DBF1F910F918F
:100AB0000895EF92FF920F931F932091610230915E
:100AC0006202442737FD4095542F7C010027F7FC34
:100AD0000095102FCA01B901A80197010E943E0C90
:100AE000DC01CB01BC01CD012DE730E040E050E05E
:100AF0000E94700CDA01C9011F910F91FF90EF90D5
:100B00000895AC01CB019B01220F331F280F391F21
:100B100037FF02C02F5F3F4F359527956DE270E09C
:100B2000C901840F951F0E94CF020895EF92FF9292
:100B30000F931F93CF93DF9380918F029091900238
:100B4000A0919102B091920200915502109156022B
:100B5000081B190B10937A0200937902B801809157
:100B60009702909198020E94810590939802809339
:100B70009702800F911F0E9459057C0180915302BA
:100B800090915402E816F90609F469C081E0809357
:100B90007E028091890290918A02A0918B02B0918D
:100BA0008C02C0919D02D0919E02C81BD90BD0939C
:100BB0005F02C0935E02BE01809175029091760241
:100BC0000E94810590937602809375028C0F9D1F81
:100BD0000E945905BC0180917C0290917D026817AA
:100BE0007907B1F181E080935D02809188028823CA
:100BF00009F042C00C5F1F4F09301105D0F0809101
:100C0000630290916402009791F1019790936402BE
:100C100080936302809161029091620220919B0215
:100C200030919C02820F931F909362028093610225
:100C300023C02496299718F7C70143968797F8F69B
:100C4000CB0143968797D8F681E080938802D7CF6F
:100C50008091630290916402892B39F2C3CF809115
:100C6000630290916402892B09F493CF8FCF809116
:100C7000950290919602D8CFC7010E94F5020E947A
:100C8000A103DF91CF911F910F91FF90EF900895F5
:100C9000EF92FF920F931F93CF93DF9386EA91E039
:100CA0000E94E6070FE310E07801B801C8010E9436
:100CB000F5021092580210925702C8E1D0E010C01D
:100CC00080915702909158028F719070892BB1F0EA
:100CD0008091570290915802CD97E4F4D7FD4AC015
:100CE00080918302882361F30E94A10380915702BF
:100CF000909158028F719070892B51F70E94570282
:100D00000E9496020E942F038091570290915802F0
:100D1000CD9724F30E9457020E9496020E942F034F
:100D20001092580210925702055010408BEF9FEF1F
:100D3000E80EF91E9FEF013C19071CF40FE310E0C9
:100D40007801B701C8010E94F502FF92EF921F934C
:100D50000F9387EB91E09F938F930E94D107219788
:100D60008DB79EB706960FB6F8949EBF0FBE8DBF87
:100D7000D7FFB6CFC0E0D0E0BE01CE010E94F502A1
:100D8000D0939A02C0939902D0937202C0937102D9
:100D900081E080935902DF91CF911F910F91FF90D5
:100DA000EF90089510925802109257028091880295
:100DB000882361F5809183028823A9F480915702EA
:100DC000909158020497B9F080915702909158027F
:100DD0000897C9F080915702909158020C9734F30C
:100DE0000E94BE04DFCF0E94960580915702909129
:100DF0005802049749F70E949602809157029091F9
:100E00005802089739F70E942F03E4CF60E070E0A2
:100E1000CB010E94F50210929A0210929902109250
:100E200072021092710281E08093590208959B0131
:100E3000AC018091840290918502A0918602B091CC
:100E40008702280F391F4A1F5B1F809184029091EF
:100E50008502A0918602B091870282179307A407AA
:100E6000B50798F30895CF93DF938CED91E00E943E
:100E7000E60710928F021092900210929102109247
:100E800092021092890210928A0210928B021092A2
:100E90008C02CFE0D0E08BEE91E00E94E60721E0EB
:100EA0004FE350E069E271E0CB010E945B040E94D5
:100EB000D20662E070E080E090E00E94170787EFC2
:100EC00091E00E94E60721E042E350E067ED7FEF0A
:100ED00089E290E00E945B040E94D20662E070E02A
:100EE00080E090E00E9417072197D7FFD4CFD1CFA1
:100EF000CFE5D4E0DEBFCDBF0E94470085E092E0A1
:100F00000E94E6070E948D0086E392E00E94E607B9
:100F10000E943307FFCF0F931F93CF93DF938C0172
:100F2000EB010097B9F16CE070E081E090E00E9485
:100F3000D20AFC01009781F1209771F0C287D38714
:100F400021E02383A091A202B091A302AB2B21F454
:100F50009093A3028093A20201151105C9F00087A6
:100F60001187038102600383A091A402B091A502BE
:100F7000AB2B71F4F093A502E093A402C091A602FA
:100F8000D091A702CD2B21F4F093A702E093A60203
:100F9000CF0102C0672B39F6DF91CF911F910F91DE
:100FA0000895CF93DF93CDB7DEB7A5E0B0E0AC0FE7
:100FB000BD1F2D913D91AD01B9018091A402909189
:100FC000A5020E941D08DF91CF9108950F931F93F2
:100FD000CF93DF93EC0100E010E0E091A402F091E8
:100FE000A502238121FF22C089918823A1F00084DA
:100FF000F185E02D0995892B11F00FEF1FEF8991F5
:10100000882329F0E091A402F091A502F0CFE091AD
:10101000A402F091A5020084F185E02D8AE00995F3
:10102000892B11F00FEF1FEFC80102C08FEF9FEF68
:10103000DF91CF911F910F9108952F923F924F9280
:101040005F926F927F928F929F92AF92BF92CF9258
:10105000DF92EF92FF920F931F93CF93DF93CDB761
:10106000DEB762970FB6F894DEBF0FBECDBFAA24DD
:10107000BB2465014C016D877E874F87588B4424C4
:101080005524FC0146825782838181FD5BC28FEF2C
:101090009FEF6FC240FE44C2862D80538A30E0F439
:1010A000F0E36F1641F42A89222329F4772019F4FA
:1010B00080E091E08BC08AE09A89989F902D11245E
:1010C000892F860D80538A8B882314F4EFE7EA8BEF
:1010D00043FC38C27A8836C243FE05C0FA89FF2332
:1010E00011F421E02A8B862D992787FD909588366B
:1010F000910554F5853691050CF06BC08835910546
:1011000009F4D3C089359105B4F48B32910509F403
:1011100042C08C32910544F48032910509F43FC0FD
:10112000839709F442C0F2C18D329105D9F18E97AF
:1011300009F440C0EBC18336910509F454C08436EC
:10114000910509F478C0E2C18037910509F4A5C082
:101150008137910584F48C369105B1F18D36910576
:101160002CF48936910509F466C0D0C18F369105FB
:1011700009F490C0CBC18537910509F498C0863732
:10118000910524F483379105B9F1C0C188379105E1
:1011900009F48BC0BBC180E190E0482A592AE0E203
:1011A000F0E005C080E890E011C0E0E4F0E04E2AF5
:1011B0005F2AC8C188E090E0482A592AEFEFFEEF85
:1011C0004E225F221A8ABEC184E090E0482A592A42
:1011D000B9C10F2EFFE3AF2EF02D7A940F2EF3E658
:1011E0006F2EF02D3AC1EF85F889CF0102968F87D7
:1011F000988BA0807A9431C1EF85F889CF0102964F
:101200008F87988BA080B18043FE0BC0EA898E2F18
:10121000992787FD9095BC01C5010E94330C898BED
:1012200007C0F50101900020E9F73197EA19E98B31
:10123000F9897F1A12C142FE0BC0EF85F889CF01F0
:1012400004968F87988B20813181428153810DC014
:10125000EF85F889CF0102968F87988B80819181E5
:101260009C01442737FD4095542F59016A015523AD
:1012700064F4E2E0F0E04E2A5F2AD094C094B09487
:10128000A094A11CB11CC11CD11C8FEB9FEF482264
:1012900059222BC098E0998B0AC0E0E4F0E04E2A76
:1012A0005F2A0F2EF8E76F2EF02DF0E1F98B42FE4A
:1012B0000BC0EF85F889CF0104968F87988B20812A
:1012C0003181428153810BC0EF85F889CF010296AD
:1012D0008F87988B808191819C01442755275901E4
:1012E0006A01EFECFFEF4E225F221E010894211CE1
:1012F000311CF989EF2EFF2400271127C601B50103
:10130000A80197010E949F0CDC01CB01F1018083B1
:101310008A301CF0860D815203C0F1018081805D0E
:10132000F10181931F01C601B501A80197010E9437
:101330009F0C59016A012115310541055105F1F64E
:10134000CE010196A22CA81AC20182739070892B3B
:1013500009F07A9446FE0FC0872D992787FD909556
:10136000F989F03131F40F2EFEEF7F2EF02D780E3B
:1013700002C0782E7A9443FE12C08A89282F332720
:1013800027FD30958A2D9927821793072CF0E7EFD8
:10139000FFEF4E225F2203C0FA89FA19FA8B43FE4F
:1013A00003C02A89721A01C07A18C201807891702C
:1013B000892B69F4872D7A9418164CF4B40180E2D5
:1013C00090E00E94EE0A872D7A941816BCF341FE35
:1013D00004C0B4018DE290E00BC044FE04C0B4012F
:1013E0008BE290E005C045FE05C0B40180E290E0CC
:1013F0000E94EE0A46FE0FC0B40180E390E00E9416
:10140000EE0A8989803139F4862D992787FD9095D8
:10141000B4010E94EE0A50FE0DC0872D7A94181672
:101420004CF4B40180E390E00E94EE0A872D7A9498
:101430001816BCF343FE11C08A89982F91509A8BDD
:1014400018165CF4B40180E390E00E94EE0A8A89E9
:10145000E82FE150EA8B1816ACF3842D807869F4FC
:10146000872D7A9418164CF4B40180E290E00E9423
:10147000EE0A872D7A941816BCF3F3E66F1641F442
:101480008A2D992787FD9095B4010E94EE0A2DC000
:1014900023E76216B1F489898150898B8F3F29F146
:1014A000F5018081992787FD90950894A11CB11CB6
:1014B000B4010E94EE0A99899150998B9F3F81F760
:1014C00014C0CE0101962816390679F08E010F5FFF
:1014D0001F4FF10182911F01992787FD9095B4015B
:1014E0000E94EE0A20163106A1F7842D8078A9F01B
:1014F000872D7A9418168CF4B40180E290E00E9453
:10150000EE0A872D7A941816BCF307C0862D99270A
:1015100087FD9095B4010E94EE0A4424552412C020
:10152000F5E26F1641F44424552443941A8A7A88CC
:101530002AE0298B07C0862D992787FD9095B40155
:101540000E94EE0AF401838183FF08C0ED85FE85C9
:10155000CF0101968D879E87649005C0ED85FE853D
:101560006190ED87FE87662009F094CDF4018681B5
:10157000978162960FB6F894DEBF0FBECDBFDF91A4
:10158000CF911F910F91FF90EF90DF90CF90BF9080
:10159000AF909F908F907F906F905F904F903F9013
:1015A0002F9008950F931F93CF93DF93869F800111
:1015B000879F100D969F100D1124C8010E94210BCA
:1015C000EC01009731F0A80160E070E00E942C0C63
:1015D000CE01DF91CF911F910F9108950F931F932B
:1015E000CF93DF938C01EB018B81992781FF22C080
:1015F00082FF14C02E813F814C815D812417350705
:101600003CF4A881B9810D93A883B9832E813F81D1
:101610002F5F3F4F2E833F83C8010EC0E885F985B9
:10162000802F0995892B31F4EE81FF813196EE836D
:10163000FF83F2CF8FEF9FEFDF91CF911F910F913B
:101640000895CF93DF939C01029710F422E030E0DD
:1016500040E050E0E0915002F0915102BF01DA0108
:101660003097B1F0808191818217930709F485C08A
:101670002817390738F44115510519F084179507D3
:1016800008F4AC01DF010280F381E02D309751F7BF
:1016900041155105B9F0DA01A21BB30B149708F4F8
:1016A0009A01FB01A0E0B0E0672B61F060817181DD
:1016B0006417750709F43FC0DF010280F381E02D54
:1016C0003097A1F740914E0250914F0241155105BC
:1016D00041F4409147025091480250934F02409389
:1016E0004E02A0914902B0914A021097D9F0FA0136
:1016F000BD01641B750B6217730788F0D901129640
:101700006A177B0760F0420F531F4E5F5F4F509385
:101710004F0240934E0221933193CF0137C080E0B6
:1017200090E034C0ADB7BEB7E0914502F0914602FB
:10173000AE1BBF0BDCCF2417350769F0421B530BE0
:10174000EF01C40FD51F2993399342505040408375
:101750005183CE011BC0109749F02281338112962C
:101760002D933C931397CF01029610C04281538171
:101770005093510240935002F6CF109771F7228197
:1017800033813093510220935002EDCFDF91CF91FE
:101790000895CF93DF93009709F45BC0DC011297A3
:1017A00012961D921C9213978091500290915102B3
:1017B0000097D1F1FC0140E050E0EA17FB0710F57B
:1017C000AF010280F381E02D3097B9F7EA01AA83D7
:1017D000BB83FA01329628813981E20FF31FEA17A1
:1017E000FB07B9F56D917C911197260F371F2E5F7E
:1017F0003F4F2883398312964D915C9113974A830A
:101800005B8327C0ED011296ED93FC9313972D9106
:101810003C911197C20FD31FCE0102968E179F07DE
:1018200041F04115510591F6B0935102A093500239
:1018300010C06A817B81260F371F2E5F3F4F2D938B
:101840003C9311972281338112962D933C931397E9
:10185000E8CFDF91CF910895DC0101C06D93415035
:101860005040E0F70895FC01615070400190011074
:10187000D8F7809590958E0F9F1F0895629FD00195
:10188000739FF001829FE00DF11D649FE00DF11D3B
:10189000929FF00D839FF00D749FF00D659FF00DEA
:1018A0009927729FB00DE11DF91F639FB00DE11DD7
:1018B000F91FBD01CF011124089597FB092E0726BA
:1018C0000AD077FD04D027D006D000201AF47095F6
:1018D00061957F4F0895F6F7909581959F4F0895F4
:1018E00097FB092E05260ED057FD04D028D00AD02C
:1018F000001C38F450954095309521953F4F4F4F3F
:101900005F4F0895F6F790958095709561957F4F9C
:101910008F4F9F4F0895AA1BBB1B51E107C0AA1F01
:10192000BB1FA617B70710F0A61BB70B881F991F80
:101930005A95A9F780959095BC01CD010895A1E233
:101940001A2EAA1BBB1BFD010DC0AA1FBB1FEE1F39
:10195000FF1FA217B307E407F50720F0A21BB30B84
:10196000E40BF50B661F771F881F991F1A9469F700
:1019700060957095809590959B01AC01BD01CF015C
:021980000895C8
:10198200506F7765722D6F6E2052657365740045D6
:10199200787465726E616C20526573657400427270
:1019A2006F776E6F7574205265736574005761743A
:1019B2006368646F67205265736574004A544147D7
:1019C20020526573657400456E635370645220251E
:1019D200643B20524677642025643B20456E635069
:1019E2006572522025753B2000456E635370644C2E
:1019F2002025643B204C4677642025643B20456EBD
:101A0200635065724C2025750D0A00657272522072
:101A120025643B2069657272522025643B20726501
:101A220071522025643B206F7574522025643B203F
:101A3200646972522025640D0A006572724C202579
:101A4200643B20696572724C2025643B207265718B
:101A52004C2025643B206F75744C2025643B206428
:101A620069724C2025640D0A002020726571206580
:101A72006E632065646972206572722069657220E6
:101A82007370642070776D206469720D0052202596
:101A9200642C20256C642C2025642C2025642C20A9
:101AA2000025642C2025642C2025642C2025640D1F
:101AB2000A004C2025642C20256C642C2025642CE3
:101AC2002025642C200053706565642072616D705E
:101AD20020746573740D002D2D3E2052657175655D
:101AE200737465642053706452203D2025643B204A
:101AF2005370644C203D2025640D0A00506F7369B9
:101B020074696F6E20746573740D004677642031BA
:101B120020666F6F740D005475726E696E6720399E
:101B22003043430D000A41746D656C2041544D45AC
:101B320047413136202F2041524320312E31205748
:101B4200572D3031204F646F6D657472792045785E
:101B5200616D706C6500706F736974696F6E5F742C
:0C1B62006573740D002000A80200000054
:00000001FF
