:020000040000FA
:100000000A308A00282A0000FF00030E8301A100A5
:100010000A08A0008A010408A2007708A300780853
:10002000A4007908A5007A08A6007B08A70083131E
:1000300083120B1E1D288B1846288C308400801CD0
:1000400023288C1849288C308400001D29280C197D
:100050004C288D308400001C2F280D184F288B1E33
:1000600033280B195228220884002308F70024089B
:10007000F8002508F9002608FA002708FB002008E8
:100080008A00210E8300FF0E7F0E09008A110A12DA
:10009000F7298A110A12DF2A8A110A1220298A11E5
:1000A0000A1242298A110A12E0290A108A100A113A
:1000B0008207573457342D343034313420344334AC
:1000C000433453342034433420345334713475343E
:1000D00061347234653420344534783461346D349D
:1000E00070346C3465342034533474346134723475
:1000F000743469346E34673421340D340A34003476
:100100000A108A100A11820752343A3420344534D6
:100110006E346334533470346434203425346C3496
:1001200064343B34203450346F34733420342534F9
:100130006C346434203446347734643420342534C9
:1001400064343B34203400340A108A100A118207C8
:100150004C343A34203445346E3463345334703480
:100160006434203425346C3464343B3420345034CB
:100170006F347334203425346C3464342034463482
:10018000773464342034253464340D340A34003434
:100190000A108A100A11820745346E3463346F34B2
:1001A00064346534723420345434653473347434B4
:1001B0000D340A3400340A108A100A118207683498
:1001C00069347434203465346E3474346534723474
:1001D000203474346F342034733474346F34703496
:1001E0000D340A3400340A108A100A11FA3E03183A
:1001F0008A0A82007A34653472346F34203473345E
:100200006534723476346F34733420346E346F3422
:1002100077343B34203468346934743420346B349C
:100220006534793420347734683465346E3420345E
:10023000723465346134643479340D340A340034F2
:100240008316201C2E2983120611C33096005030CD
:1002500095000B309700831620103D2983126F18EC
:10026000061583162208831296008316210883122E
:1002700095000A3097008316201483120C118A11FE
:100280000A123328291C4B298610C3309C00503099
:100290009B00291052296F1886142B089C002A08ED
:1002A0009B0029140D108A110A12332803300317FA
:1002B0002007840083132118831780187B290330BB
:1002C0002007F8002108FA000318FA0A7808A300AA
:1002D0007A08A400A2080319742923088400831350
:1002E0002418831700117A29230884008313241803
:1002F00083170015952903302007F8002108FA001C
:100300000318FA0A7808A3007A08A40022188F2993
:1003100023088400831324188317001195292308C8
:1003200084008313241883170015033020078400EA
:10033000831321188317001DAB2904302007840084
:1003400083132118831701308007031CAA29840A0C
:10035000800A8403B82904302007840083132118FD
:100360008317FF3080070318B829840A80038403A9
:100370000D3020078400831321188317800A123060
:100380002007840083132118831770088000840AD3
:1003900071088000840A72088000840A7308800053
:1003A0000C302007840083132118831700140B30AE
:1003B000200784008313211883178001031300345E
:1003C000FF3081000030061A013003179F0003132D
:1003D0006C080317A10003136B080317A0001F0884
:1003E000A200031356210B118A110A123328003080
:1003F000861A013003179F0003136E080317A1002C
:1004000003136D080317A0001F08A2000313562151
:100410008B108A110A123328033003171F07840038
:10042000831320188317001C792A2A301F078400A1
:10043000831320188317001C492A01301F07F80076
:100440002008FA000318FA0A7808A1007A08A20026
:1004500028301F078400831320188317840A00089C
:10046000FA0084030008B03EF8000E3003180F3085
:10047000FA077808A3007A08A400210884008313EF
:1004800022188317840A240880008403230880002C
:10049000782A01301F07F8002008FA000318FA0A2A
:1004A0007808A1007A08A20028301F07840083136F
:1004B00020188317840A0008FA0084030008B03C5F
:1004C000F7007A08031C7A0F672A0E30682A0E3C60
:1004D000FA007708A3007A08A40021088400831397
:1004E00022188317840A24088000840323088000CC
:1004F000DC2A2A301F078400831320188317001C6E
:10050000B12A01301F07F8002008FA000318FA0A80
:100510007808A1007A08A20028301F0784008313FE
:1005200020188317840A0008FA0084030008B03CEE
:10053000F7007A08031C7A0F9F2A0E30A02A0E3C7F
:10054000FA007708A3007A08A40021088400831326
:1005500022188317840A240880008403230880005B
:10056000DC2A01301F07F8002008FA000318FA0AF5
:100570007808A1007A08A20028301F07840083139E
:1005800020188317840A0008FA0084030008B03E8C
:10059000F8000E3003180F30FA077808A3007A0825
:1005A000A40021088400831322188317840A2408D6
:1005B000800084032308800003136F14003401308B
:1005C000F0070318F10A0319F20A0319F30AF40AEF
:1005D0000319F50A7408C83C031D012BF508031D17
:1005E000012BEF14FC0A0319FD0AF501F40134088C
:1005F0000F3C0318B40A83162B080F3C0318AB0AF0
:1006000083126F1D162B6F116C080317A0000313C4
:100610006B0803179F0003130C226E080317A0003A
:1006200003136D0803179F0003130C228C108A110B
:100630000A123328EE01A030ED008316A3148312B2
:10064000EC012930EB002C141B3083168500F930A7
:100650008600E1308700F0308800091489140915FC
:1006600081131F149F141F159F1183121F139F17AF
:1006700083169F1383121F14831609122F30F7005D
:10068000831281018130840083130008C039073848
:10069000800064000008C739F719C039770480006A
:1006A000FF308100953090008F018E018316011379
:1006B0001830F800043883129200FF30831692003D
:1006C0000A30831297009D0083160C150D148312B7
:1006D000A8018B1BA8178B136E080317A000031328
:1006E0006D0803179F0003130C22A81B8B17A8018A
:1006F0008B1BA8178B136C080317A00003136B0840
:1007000003179F0003130C22A81B8B1783162014BA
:100710008312061583162208831296008316210879
:1007200083129500291486142B089C002A089B002C
:100730006F108B160B1683168C14C03083128B042B
:100740008316E2016208831255208316E20AF7003D
:1007500083120C1EA92B9900263083166202031DFA
:10076000A22B83128A150A126E2A8316E71BCE2B40
:10077000E91FBD2BE71FC92BBF2BE71BCD2B69083A
:100780006702031CCD2B031DC92B660868020318E2
:10079000CD2B6908E7006808E600F02B6808003CEC
:1007A000F700FA016908031C690FFA027708F800DC
:1007B000E71FDD2BFA1FE92BDF2BFA1BF02B670855
:1007C0007A02031CF02B031DE92B7808660203183C
:1007D000F02B6809E6006909E700E60A0319E70A51
:1007E0006608F8006708F90083128A110A12022CC1
:1007F00083166508E7006408E600E9013F30E80079
:100800008312B52B79088316E5007808E4002B30B5
:1008100062078400831363188317840A0008E700C3
:1008200084030008E6000030E71B0130E6000030DA
:10083000E51B013066060319272C2030620784006F
:10084000831363188317840A800184038001263090
:1008500062078400831363188317840A800184036A
:1008600080012B3062078400831363188317840A86
:1008700065088000840364088000831200346C08DB
:100880008316E30083126B088316E200E501E4019E
:100890008312F8236E088316E30083126D08831613
:1008A000E200E501E4018312F823D201D1018316AD
:1008B000C901C8018312A8018B1BA8178B136C08F0
:1008C0000317A00003136B0803179F0003130C22E8
:1008D000A81B8B17A8018B1BA8178B136E08031777
:1008E000A00003136D0803179F0003130C22A81B1D
:1008F0008B176F106F1100340C3083166207840061
:10090000831363188317001CC72F16306207F80083
:100910006308FA000318FA0A7808E4007A08E50088
:100920001230620784008313631883170008E600FF
:10093000840A0008E700840A0008E800840A000826
:10094000E9000E30620784008313631883170008E0
:10095000F700840A0008F800840A0008F900840AF5
:100960000008FA0077086602F7007808031C780F81
:10097000BB2C6708BC2C6702F8007908031C790FB0
:10098000C32C6808C42C6802F9007A08031C7A0F8B
:10099000CB2C6908CC2C6902FA00E9007908E80040
:1009A0007808E7007708E600640884008313651878
:1009B000831766088000840A67088000840A680834
:1009C0008000840A690880000D3062078400831368
:1009D000631883170008013C0318982D163062072E
:1009E000F8006308FA000318FA0A7808E4007A08A5
:1009F000E500640884008313651883170008E60087
:100A0000840A0008E700840A0008E800840A000855
:100A1000E900FD3084070D306207840083136318FA
:100A200083170008EA00EC010408EB006C10831B3C
:100A30006C14690883120317930083160313680864
:100A40008312031792008316031367088312031798
:100A50009100831603136608831203179000970111
:100A600096019501831603136A08831203179400F5
:100A7000F701F801F901FA01980199019A019B0126
:100A800017081604150414040319762D20309C0051
:100A90000310900D910D920D930D980D990D9A0DD7
:100AA0009B0D17081B02031D5F2D16081A02031D5C
:100AB0005F2D15081902031D5F2D14081802031C71
:100AC000702D140898021508031C150F99021608BA
:100AD000031C160F9A021708031C170F9B0203141E
:100AE000F70DF80DF90DFA0D9C0B482D1830840008
:100AF0008317831603136B08840083136C18831702
:100B00007A08E9007908E8007808E7007708E60045
:100B10006408840083136518831766088000840ABC
:100B200067088000840A68088000840A69088000D9
:100B30001630620784008313631883178008031D2F
:100B4000AD2D840A8008031DAD2D840A8008031D85
:100B5000AD2D840A80080319522F1A306207F8005D
:100B60006308FA000318FA0A7808E4007A08E50036
:100B70001630620784008313631883170008F70098
:100B8000840A0008F800840A0008F900840A0008B2
:100B9000FA00FD3084077A08E9007908E80078084F
:100BA000E7007708E600B630F700FA01F901F8012E
:100BB0006608670468046904031DE02DF701ED2D44
:100BC0000310F81BEC2DE60DE70DE80DE90DFA0D0D
:100BD000F90DF80DF70BE02DF8139330E900FC3018
:100BE000E8004D30E7008A30E6007A08ED00790829
:100BF000EC007808EB007708EA0066080319182F64
:100C0000831203179400831603136A080319182F1D
:100C1000831203179402031C152E7F309407031CC4
:100C2000142E83160313182F212E813094020318DB
:100C30001C2E83160313182F031D212E8316031356
:100C4000182F1408F700F801F901FA01930183162F
:100C50000313670883120317920092178316031376
:100C6000680883120317910083160313690883121F
:100C70000317900019309400831603136D08831234
:100C8000031790020318582E013091020318582EB2
:100C900092020318582E93020318582E930A920AB0
:100CA000910A831603136D08831203179007A22E6F
:100CB000831603136C0883120317910203187F2E07
:100CC0000130920203187F2E930203187F2E930A9D
:100CD000920A831603136C08831203179107831675
:100CE00003136D08831203179007031CA22E910AA9
:100CF000031DA22E920A031DA22E930AA22E831672
:100D000003136B0880388312031792020318A12E75
:100D1000013093020318A12E930A831603136B0864
:100D20008038831203179207831603136C0883120B
:100D300003179107031C6F2E920A031D6F2E930A4F
:100D40006F2E7A14940BA52EB02E0310900D910DDA
:100D5000920D930D0310FA0DF90DF80D950D3C2E23
:100D6000151CB82E0310F80CF90CFA0C950CBD2EBE
:100D7000F70BBD2E83160313182F951BF22E0310AD
:100D8000900D910D920D930D831603136D08831230
:100D9000031790020318D62E013091020318D62EA5
:100DA00092020318D62E9302031C042F83160313FA
:100DB0006C088312031791020318E52E013092028A
:100DC0000318E52E9302031C042F831603136B08EC
:100DD00080388312031792020318F22E0130930217
:100DE000031C042FFA0A031D042FF90A031D042F04
:100DF000F80A031D042FF70A031D012F831603139E
:100E0000182FF80CF90CFA0C8316031367088312D9
:100E100003179400831603136B08831203179406B9
:100E2000941F142FF8171E2FF8131E2F8316031369
:100E3000F701F801F901FA01831203177A08831602
:100E40000313E9007908E8007808E7007708E6006E
:100E50008E30F7006608F7026708F9006808F800A6
:100E6000F917F70803193F2F0310F908031D3B2F4B
:100E7000F80803193F2FF90CF80CF70B342FE71F74
:100E8000462FF809F909F80A0319F90A64088400D9
:100E9000831365188317840A79088000840378080F
:100EA00080005C2F1A306207840083136318831755
:100EB000840A8001840380010E306207F800630811
:100EC000FA000318FA0A7808E4007A08E5001230FC
:100ED000620784008313631883170008F700840AED
:100EE0000008F800840A0008F900840A0008FA00E3
:100EF0006408840083136518831777088000840AC8
:100F000078088000840A79088000840A7A088000C2
:100F10000D30620784008313631883178001033048
:100F2000620784008313631883170019C62F1A30D1
:100F30006207F8006308FA000318FA0A7808E40068
:100F40007A08E5001A306207840083136318831758
:100F5000840A0008FA0084030008003CF7007A08BD
:100F6000031C7A0FB52F0030B62F003CFA0077082B
:100F7000E6007A08E7006408840083136518831785
:100F8000840A67088000840366088000F12F0B3014
:100F90006207840083136318831700080F3C03184B
:100FA000F12F163062078400831363188317E03033
:100FB0008000840A0C308000840A8001840A800149
:100FC0001A3062078400831363188317840A800130
:100FD000840380010C306207840083136318831735
:060FE0000014831200342E
:101000008316EB010408EA006B10831B6B14E41FCA
:101010001128EA176A1EEA0AE309E409E30A031938
:10102000E40A640EF038E600E607E23EE700323EEE
:10103000E90064080F39E707E707E907E93EE80038
:10104000E807E807630E0F39E807E907E80DE90D3F
:10105000E909E90D63080F39E907E60D0730E500F6
:101060000A30E907E803031C3128E807E703031CFB
:101070003528E707E603031C3928E607E503031CC8
:101080003D28E5308400831307306A056A13840322
:101090006A05031D52286A1A840A6A1A52282030E7
:1010A000F7006F288407E930040203196A17000863
:1010B000F700031D63286A1B63286A1A7528EA195A
:1010C000632820306E28EA1F6B282D30F700840338
:1010D0006A13EA136F28EA156A123030F7077708A7
:1010E00083120C1E712899008316840A6A1F5328E4
:1010F0008312003483166A08F801690203188328F2
:101100006908F7008F28F7010830EB00E90DF70DAB
:101110006A0877020318F700F80DEB0B8628831294
:10112000003420308316641E3030E5006308F70079
:10113000E31FA128F709F70A7708E3002D30E5003F
:10114000E4176308E9006430EA0083127A20770824
:101150008316E30030307807E6006308E9000A30C0
:10116000EA0083127A20303077078316E8003030A7
:101170007807E7006508F700E41DC028E41F641144
:10118000641ACD28E41FE8286419E8287708E600E7
:10119000E418E8287708E700E82830306602031DE5
:1011A000E8287708E6002030E500E41DDB2864111C
:1011B000E414E41FE41030306702031DE8287708C8
:1011C000E7002030E600E41DDB28E410E41F641093
:1011D000641DF028650883120C1EEC289900831604
:1011E000E41CF828660883120C1EF4289900831664
:1011F000641C0029670883120C1EFC2899008316C2
:10120000680883120C1E02299900003400302C1942
:1012100001308316E200E30163088A118312802003
:101220008A158316E30AF70083120C1E152999000C
:101230000A3083166302031D0C29103084008312C8
:1012400044088316E400831243088316E3008312E4
:1012500000200D308316E30063088A11831280207A
:101260008A158316E30AF70083120C1E35299900AC
:10127000133083166302031D2C291030840083125F
:101280002E088316E40083122D088316E3008312D0
:10129000002016308316E30063088A118312802031
:1012A0008A158316E30AF70083120C1E552999004C
:1012B0001B3083166302031D4C296208E3001F30B4
:1012C000E400831291203B300C1E642999002030E9
:1012D0000C1E682999000030831623190130E200A2
:1012E000E30163088A118312A4208A158316E30A96
:1012F000F70083120C1E7A2999000A3083166302C4
:10130000031D7129103084003B08E4003A08E30013
:10131000831200200D308316E30063088A118312C4
:10132000A4208A158316E30AF70083120C1E96295F
:101330009900133083166302031D8D291030840039
:101340002508E4002408E3008312002016308316E9
:10135000E30063088A118312A4208A158316E30A26
:10136000F70083120C1EB22999001B30831663020A
:10137000031DA9296208E3001F30E40083129120B5
:101380000D300C1EC12999000A300C1EC529990088
:1013900000348A113F248A158316E20162088A11FB
:1013A0008312C8208A158316E20AF70083120C1EE6
:1013B000D72999000E3083166202031DCE29E2015F
:1013C00062088A118312DB208A158316E20AF7006D
:1013D00083120C1EE9299900133083166202031D43
:1013E000E02983123518F82983162C1C1A2A831237
:1013F000351C062A6C088316E30083126B088316DB
:10140000E2008A1183127C248A15351083162C1C65
:10141000172A83126E088316E30083126D08831661
:10142000E2008A1183127C248A1583162C10831201
:101430000621831683128C1E242A06218C1E1E2A46
:101440001A080D3C0319252AF2298A150A12702A56
:1014500003081F3983005730F700203084008313BE
:101460008001840AF70B302AF801F901FA01FB0127
:10147000FC01FD01FE015030F700A0308400831311
:101480008001840AF70B402A6030F7001030840096
:1014900083178001840AF70B492A83136030F70011
:1014A0009030840083178001840AF70B532A83133A
:1014B000A001840183131F30830520308316990017
:1014C000A630980090308312980083161F149F1442
:1014D0001F159F1183126F108A111A2B8A15C929A3
:1014E0008316E20162088A118312F3208A1583169B
:1014F000E20AF70083120C1E7B2A9900253083161E
:101500006202031D722A8A1183123F248A156F1406
:101510006F158C1E892A8A113F248A158E2A630032
:02400E00323F3F
:00000001FF
;PIC16F877
;CRC=7244  CREATED="13-Apr-09 10:56"
