:100000003FC059C05CC457C09BC1D7C654C053C081
:1000100052C051C050C04FC04EC027C721C451C3A9
:10002000E4C2E3C2E2C2E1C2E0C2DFC2DEC2DDC2BC
:10003000DCC2DBC2DAC2D9C2D8C2D7C2D6C2D5C2EC
:10004000D4C2D3C2D2C2D1C2D0C24DC346C3CDC224
:10005000CCC2CBC242C3C9C2C8C2C7C292C388C342
:10006000C4C2C3C2C2C2C1C2C0C26FC3BEC253C334
:1000700003C502C5AAC4A9C4FFC4FEC4F8C4F0C421
:1000800011241FBECFE5D2E0DEBFCDBF10E0A0E659
:10009000B0E0EEE4F4E102C005900D92A637B1079E
:1000A000D9F711E0A6E7B0E001C01D92A634B10770
:1000B000E1F712D5CAC9A4CF8091ED00882309F4D5
:1000C000BBC0F8948091ED001092ED004091F000DB
:1000D00078946091C5007091C600282F30E0C90166
:1000E00088719070892B09F4A7C0942F43FDA5C097
:1000F0001092E20094FFA6C081E08093EB0023FF02
:10010000A5C08091E200882309F4D3C08091EB0060
:10011000882309F0A4C01092DE008091DE008823BD
:1001200009F4A5C08091D5009091D600A091D70088
:10013000B091D8000196A11DB11D8093D500909378
:10014000D600A093D700B093D80081E08093EC0054
:100150001092CE008091DE008093F1008091D50056
:100160009091D600A091D700B091D800B695A795F0
:1001700097958795B695A795979587958170809364
:10018000C9008091D9009091DA000097C9F498B322
:100190008091DE00882309F099C0292F2B7F809160
:1001A000D5009091D600A091D700B091D800817071
:1001B0009070892B09F491C0822F826088BB03C0A4
:1001C000019709F468C0E091D300F0E08091CF007E
:1001D0009091D0009B01281B390BC901EE0FFF1F26
:1001E000ED51FF4F918380837093D0006093CF00D7
:1001F0008091D3008F5F83708093D3006091E30080
:100200007091E4008091E5009091E6002091E70074
:100210003091E8004091E9005091EA00860F971F65
:10022000820F931F840F951F9695879596958795B6
:100230009093DD008093DC00089581E08093E200DC
:1002400094FD5ACF1092EB0023FD5BCF8091EB0021
:100250008823A1F18091E200882309F05CCF81E03E
:100260008093DE008091DE00882309F05BCF8091CF
:10027000D5009091D600A091D700B091D8000197F9
:10028000A109B1098093D5009093D600A093D7001F
:10029000B093D8005ACF98B38091E2008823A1F49C
:1002A0009D7F8091EB008823A1F0892F846088BB1B
:1002B0008ACF8091EB00882391F22DCF8091E200CC
:1002C000882309F428CFCBCF9260EBCF292F24606D
:1002D00066CF892F8B7F88BB76CF822F8D7F88BB9F
:1002E00072CF8091DB00882311F11092DB00209106
:1002F000C9003091F100922F990F932B80916700E4
:100300009817B1F09093670090E08091DF00882308
:1003100009F491E09093DF00332329F0222359F46C
:10032000C59ABD9A0895222341F4C598BD980895B1
:10033000933041F30895992399F7C598BD9A08958C
:100340001F920F920FB60F9211248F939F93AF932A
:10035000BF938091E0009091E10001969093E100BD
:100360008093E00080916A00815080936A00882326
:1003700011F58EE480936A008091CA009091CB00C1
:10038000A091CC00B091CD000196A11DB11D80932C
:10039000CA009093CB00A093CC00B093CD00809185
:1003A000CE008F5F8093CE008091CE00853660F4C2
:1003B00081E08093DB00BF91AF919F918F910F906F
:1003C0000FBE0F901F9018951092DD001092DC0068
:1003D000EFCF2091E0003091E100C90108958091B4
:1003E000DC009091DD00892BD9F06091DC007091E8
:1003F000DD0084E89EE17DD67093EF006093EE000F
:100400008091DE00882359F48091EE009091EF00F6
:10041000909581959F4F9093EF008093EE00089503
:100420008091EE009091EF00892B19F081E080938C
:10043000EC001092EF001092EE00E2CF982F929510
:100440009F708295807F890F08952091D900309107
:10045000DA002230310531F02330310509F00895FA
:10046000D9D40895E4D30895CF93DF93982F809142
:100470006800882319F1C92FD0E092959F70892FC9
:1004800090E08A3091056CF4C096DFDFCE018F706A
:1004900090708A3091056CF0C796D7DFDF91CF91CD
:1004A0000895C796D2DFCE018F7090708A30910583
:1004B0009CF7C096CADFDF91CF910895892FC5DFE1
:1004C000DF91CF910895DF93CF9300D0CDB7DEB702
:1004D0009A83898380916800882359F48981C4DFD5
:1004E000FE0131968181C0DF0F900F90CF91DF9197
:1004F00008958A81B9DF8981B7DF0F900F90CF917E
:10050000DF9108950F931F93DF93CF9300D000D016
:10051000CDB7DEB769837A838B839C838091680033
:100520008823B9F48E010F5F1F4F89819DDFF80189
:1005300081819ADFF801828197DFF801838194DF5E
:100540000F900F900F900F90CF91DF911F910F910F
:1005500008958E010F5F1F4FF801938180E0228183
:10056000820F911DB0DFF801918180E02981820F17
:10057000911DA9DFE5CFCF93DF93EC01888188231C
:1005800029F0219662DF88818823D9F7DF91CF9106
:1005900008958091D9009091DA008230910531F070
:1005A000039711F080E0089546D4089569D3089523
:1005B0008091D9009091DA008230910529F003975B
:1005C00009F0089509D40895FDD20895E2DF982F27
:1005D00020917A00222361F480937A0090E0FC015C
:1005E000BE97E932F10508F450C010927A000895E0
:1005F000809168008823B9F1992309F449C09A30A1
:1006000009F446C09D3009F443C0809178008823E6
:1006100009F4CEC0392F30533A3030F0892F81544D
:10062000863008F0E7C0375080917600882309F4BF
:10063000FBC0932F9F7080917700982B9093770049
:100640001092760010927800253409F4FBC029340A
:1006500009F0B5C09093690005D580916900CED3AB
:1006600081E6F3DEA7C0809178008823F9F48091B9
:100670007900882309F491C081E6E7DE10927800C2
:100680001092790010927A000895E15FFF4F09946B
:1006900080917900882309F083C01092790010922C
:1006A00078001092760010927A000895253409F4AB
:1006B000ADC0293419F790936900D4D481E6C5DE22
:1006C000DDCF76DF8EE2C1DE1092780010927600E8
:1006D0001092790010927A00089581E0809378005A
:1006E00010927600089580916800882309F474C000
:1006F0008091C800982F92959695977021E0922747
:1007000091709295990F907E8F7D892B8093C80070
:1007100020937900089580916800882309F452C0DD
:100720008091C800982F929596959695937021E0A8
:10073000922791709295990F990F907C8F7B892BBE
:100740008093C80020937900089584E57EDE60914F
:10075000CA007091CB008091CC009091CD00D2DE88
:1007600080916800882309F440CF8AE06EDE089506
:1007700080E690E000DF80916800882309F084CF54
:1007800034CF8DE462DE8091D900805D5EDE8091A1
:100790006800882309F429CFE8CF8EE656DE6ECFB5
:1007A00081E653DE80916800882309F476CF07C084
:1007B0008EE64BDE80916800882309F46ECF8AE0D4
:1007C00044DE6BCF86E541DE8091EE009091EF0034
:1007D0007ADE10927A00089584E437DE6091D500C5
:1007E0007091D6008091D7009091D8008BDE109246
:1007F0007A0008959F33E1F62934D1F689E425DEA5
:100800008091690031DE8AE020DE47CF892F829512
:100810008F709295907F892B8093770085E415DE09
:100820008091770021DE2ACF832F90E082959295E8
:10083000907F9827807F98278093770081E080932E
:100840007600089585E401DE90917700892F8295E6
:100850008F709295907F892B8093770005DEAACFC9
:100860001F920F920FB60F9211242F933F934F9325
:100870005F936F937F938F939F93AF93BF93EF9308
:10088000FF938091D9009091DA0082309105A9F010
:10089000039789F0FF91EF91BF91AF919F918F9155
:1008A0007F916F915F914F913F912F910F900FBE6C
:1008B0000F901F901895EED2EDCF17D2EBCF1F926D
:1008C0000F920FB60F9211242F933F934F935F9384
:1008D0006F937F938F939F93AF93BF93EF93FF9308
:1008E00086B389718093F0009091F0008091F200BE
:1008F00089278093ED008091F0008093F200809131
:10090000ED0080FF04C08091F00080FF22C0809144
:10091000ED008E7F8093ED008091ED00887141F0B5
:100920008091E0009091E1009093C6008093C50013
:10093000FF91EF91BF91AF919F918F917F916F91B7
:100940005F914F913F912F910F900FBE0F901F908D
:1009500018958091D9009091DA000297C1F6AED136
:10096000D6CFFF920F931F93CF93DF9384B78093DB
:10097000C7008FE084BF17BA8FE188BB86B3897147
:100980008093F20083E080BF1CBC89B7846089BF7C
:1009900080E28BBF88E185BB24EF31E048EC50E07A
:1009A000CA010197F1F721503040D1F786B390E0AA
:1009B000A0E0B0E087709070A070B070FC0188304B
:1009C000910548F4E85CFF4F099482E090E0909331
:1009D000DA008093D90080E055D38091D9009091BE
:1009E000DA008130910509F44EC08130910548F557
:1009F00088B3897F88BB87B3866087BB1092F1007C
:100A000081E08093C900C0E0D0E0FF24F39400E2CD
:100A10001EE4F092DB0065DCC8010197F1F7219636
:100A2000C436D105B1F778948091D9009091DA005D
:100A3000029709F443C0DF91CF911F910F91FF906E
:100A400008958230910559F10397E9F610926800F4
:100A500080916900D3D11092F1001092C900D3CFD8
:100A600081E090E09093DA008093D900B4CF1092A7
:100A7000DA001092D900AFCF83E090E09093DA00D3
:100A80008093D900A8CF88B3897F88BB87B386605D
:100A900087BB81E08093F1001092C900B4CF11E0D0
:100AA000109368008FD0B1D085E396E062E576E0E0
:100AB00034D31093F1001093C900A5CF8091C800E2
:100AC00080668093C80080E690E055DDDF91CF918D
:100AD0001F910F91FF90089544DFEEDA8091DB00C3
:100AE0008823D9F3FEDB8091D9009091DA0082301F
:100AF000910569F0039789F7DFDAF3DB70DCDCDA64
:100B0000F0DBAAD1882371F5ECDBD6DAE6CFD4DAB4
:100B1000E8DB65DCE6DBD0DAC8D0882329F5E1DB49
:100B2000CBDA8091EC008823C1F21092EC00809126
:100B3000C80085FD1BC086FF0FC085FD29C086E566
:100B400084DCBADACEDB8091EE009091EF00BBDC62
:100B5000B3DAC7DB8091C800807609F4BECF8AE0A3
:100B600074DCBBCF33DDD0CF31DDD9CF84E46DDC95
:100B7000A3DAB7DB6091D5007091D6008091D700E1
:100B80009091D800BFDC98DAACDB8091C800D3CF5D
:100B90008AE05BDC91DAA5DBD2CF982F990F9A7AA5
:100BA00086958575982B892F880F880F8C7C969554
:100BB00096959373892B982F92959F708295807F3D
:100BC000892B089510928D0010928C0010929F0036
:100BD00010929E000895F89412BE81E08CBD9FEFA4
:100BE00099BD98BD1ABC83BF82E088BF89B7826077
:100BF00089BF84E58DB99FB99EB9B99A80917B0070
:100C0000816080937B007894089588B38F6088BB5F
:100C100087B3807F87BB13BE8FEF89BD88BD1DB8AA
:100C200080E28ABFA89A8BB780628BBF08951F931A
:100C3000982F10919E001F5F1F7080919F001817C2
:100C4000E1F3892FAADFE12FF0E0E257FF4F808325
:100C500010939E0080917B0080FD05C080917B00F9
:100C600082FDFCCFB8DF1F9108950F931F93082FCB
:100C7000DEDF112707FD1095C8011F910F91089520
:100C800090918C0080918D009817D1F3E0918D00A8
:100C9000EF5FEF70E0938D00F0E0E458FF4F80814C
:100CA0007CDF0895EDDF90E0089590918C008091B5
:100CB0008D0020E0981321E0822F08958CED82BFF3
:100CC00081E08CBD83BF82E088BF89B7826089BF25
:100CD00084E58DB987EF8EB98BB78F7D8BBF8091FF
:100CE0007B00846080937B00089580917B0080FF6F
:100CF00025C080917B0081FD3CC090919E00809139
:100D00009F00981709F452C080917B008260809305
:100D10007B00E0919F00EF5FEF70E0939F00F0E0B9
:100D2000E257FF4F8081F82E9BEF9EB986958695FE
:100D300080688FB98BB78F7D8BBF089580917B00C2
:100D40008B7F80937B00E0918C00EF5FEF70809150
:100D50008D00E817F9F0E0938C0080B3F0E0E458E0
:100D6000FF4F808313BE1DB8A89A8BB780628BBFDC
:100D7000089580917B008D7F80937B008BEF8EB9EF
:100D80008F2D880F880F880F87608FB98BB780628F
:100D90008BBF089580917B00886080937B0013BE99
:100DA0001DB8A89A8BB780628BBF089580917B0095
:100DB0008E7F80937B00B998D5CF1F920F920FB68C
:100DC0000F9211248F9382B7805D82BF8F910F9015
:100DD0000FBE0F901F9018951092B2001092B100A4
:100DE0001092C4001092C3000895C29AC09ABA9A91
:100DF000B89888EA8DB980EF8EB908951092B20044
:100E00001092B1001092C4001092C3008093690048
:100E1000ECDF0895282F9091C3009F5F9F70809111
:100E2000C4009817E1F3E92FF0E0ED54FF4F208361
:100E30009093C30008959091B2008091B1008917FA
:100E4000E1F3E091B200EF5FEF70E093B200F0E009
:100E5000EF55FF4F808108959091B2008091B100CD
:100E600020E0891321E0822F08951F920F920FB680
:100E70000F9211248F938EB11092A000B89886B370
:100E800088EF8DB980EF8EB98F910F900FBE0F90C4
:100E90001F9018958091A000823009F44DC08330D6
:100EA00020F1843009F450C0843078F58FB1882364
:100EB00009F057C09091C4008091C300891709F4CC
:100EC00050C08091C4008F5F8F708093C400E09108
:100ED000C400F0E0ED54FF4F80818FB982E0809331
:100EE000A000B89A80E78EB90895882359F42FB1ED
:100EF000222389F584E08093A0001FB8B89A8EE77A
:100F00008EB908958130B1F208958530E9F79FB127
:100F10008091B1008F5F8F708093B100E091B1003C
:100F2000F0E0EF55FF4F908384E08093A0001FB85E
:100F3000B89A8EE78EB9089583E08093A000B898A0
:100F40001FB88EE78EB9089585E08093A000B89809
:100F500080E78EB90895922F969580916900981731
:100F600011F043DF089520FFC5CF81E08093A000FA
:100F7000C4CF5DDE089584DE08951F9381DE182FAF
:100F80007FDE312F20E0280F311D30933601209372
:100F900035010024369527950794369527950794B3
:100FA000322F202D30933401209333011F91089567
:100FB000EF92FF920F931F93CF93DF93EE24FF24C2
:100FC0005FDE082F10E05CDED82FC0E0CE01802B62
:100FD000912BB7011BD682E090E0E80EF91E90E459
:100FE000E916F10469F7809133019091340163E0CF
:100FF00007D6809133019091340165E001D61BD66C
:101000003FDE81E0DF91CF911F910F91FF90EF9034
:10101000089581E088BB34DE8EE309DE31DE8C3357
:1010200031F0E0E0F0E0099480E090E0089582E59E
:10103000FEDD89E4FCDD8CE6FADD83E6F8DD81E3A4
:10104000F6DD1EDE81E2F3DD98DF809135019091BF
:1010500036018F5F9F4F29F3ABDF882399F780E438
:10106000E6DDF2CF84E090E060916900A9D00895B8
:1010700083E090E09DD0843021F083E090E064E054
:101080009FD008950F931F93CF93DF93182F81E084
:1010900090E08ED08A3751F1C0E0D0E00BE610E04E
:1010A000F80161918F01CE018BD02196C530D10519
:1010B000B9F707E311E0C0E0D0E0CE0179D0F80144
:1010C00081938F012196C530D105B9F784E08093D3
:1010D0003A018091D9008093390180913B0180933E
:1010E0006900DF91CF911F910F910895112309F3AA
:1010F000D3CFAA1BBB1B51E107C0AA1FBB1FA6175A
:10110000B70710F0A61BB70B881F991F5A95A9F7B0
:1011100080959095BC01CD0108950F931F93CF93B7
:10112000DF938C01EB01009731F46115710519F41F
:1011300020E030E037C081E090E06EE070E04ED01B
:10114000FC019C01009771F180E88383209771F086
:10115000D387C28781E8838380913C0190913D01D0
:10116000892B21F4F0933D01E0933C010115110519
:10117000C9F01187008783818260838380913E015B
:1011800090913F01892B71F4F0933F01E0933E0170
:101190008091400190914101892B21F4F09341010C
:1011A000E0934001C901DF91CF911F910F91089504
:1011B000E199FECF9FBB8EBBE09A99278DB308952E
:1011C000262FE199FECF1CBA9FBB8EBB2DBB0FB65D
:1011D000F894E29AE19A0FBE019608950F931F9337
:1011E000CF93DF939C01CB01B9011DD1182F092F9B
:1011F0000ED0EC01009729F060E070E0412F502FF5
:101200000BD1CE01DF91CF911F910F910895CF9314
:10121000DF93BC018230910510F462E070E0A09190
:101220004401B0914501ED01E0E0F0E040E050E024
:1012300021C0888199818617970769F48A819B81EB
:10124000309719F09383828304C090934501809373
:101250004401FE0134C06817790738F4411551057F
:1012600019F08417950708F4AC01FE018A819B816F
:101270009C01E9012097E9F641155105A9F1CA0140
:10128000861B970B049708F4BA01E0E0F0E02AC04F
:101290008D919C91119784179507F9F46417750740
:1012A00081F412968D919C911397309719F0938346
:1012B000828304C09093450180934401FD013296DE
:1012C0004FC0CA01861B970BFD01E80FF91F619300
:1012D000719302978D939C9343C0FD01828193810A
:1012E0009C01D9011097A1F6809142019091430190
:1012F000892B41F480917200909173009093430187
:101300008093420140917400509175004115510540
:1013100041F44DB75EB78091700090917100481B09
:10132000590B209142013091430124173507B0F445
:10133000CA01821B930B8617970780F0AB014E5FA3
:101340005F4F8417950750F0420F531F509343018E
:1013500040934201F9016193719302C0E0E0F0E033
:10136000CF01DF91CF910895CF93DF93009709F4D8
:1013700050C0EC0122971B821A82A0914401B091C7
:101380004501109709F140E050E0AC17BD0708F1A6
:10139000BB83AA83FE0121913191E20FF31FAE17A7
:1013A000BF0779F48D919C911197280F391F2E5FFB
:1013B0003F4F3983288312968D919C9113979B837D
:1013C0008A834115510571F4D0934501C0934401BE
:1013D00020C012968D919C911397AD01009711F04A
:1013E000DC01D3CFFA01D383C28321913191E20F83
:1013F000F31FCE17DF0769F488819981280F391F01
:101400002E5F3F4FFA01318320838A819B81938332
:101410008283DF91CF910895DC0101C06D9341502B
:101420005040E0F708955527002480FF02C0060EC3
:10143000571F660F771F6115710521F096958795E7
:0E144000009799F7952F802D0895F894FFCF0F
:10144E004E577730320A00FF01304EFF7A010430DA
:06145E0020004601000021
:00000001FF
