:047C00000C943E3E64
:147C7C0001E005BF02E005BFCFEFD8E0CDBFDEBFC051D040E9
:147C90000AEA08830024E0E0F1E012E0E430F10711F001921A
:147CA400FBCF0083ECE7FCE7A0E0B1E01CE700E00BBFEC37E8
:147CB800F10721F0C89531960D92F9CF0E94283FFFCF20D05D
:147CCC00F80120935700E89508951AD0F901080131E03093C6
:147CE0005700E8950895F80120FD2093570007911691089523
:147CF400002E19E010935700E895089505D0B1E1B093570040
:147D0800E8950895B0915700B0FDFCCF0895AA92BA9275D0D3
:147D1C00A02E73D03A2C202E3092010120920001322C222473
:147D30003092030120920201ABBEB990A99008950E946E3FED
:147D4400219700240882CC244427552715C059D0A02E57D0FB
:147D5800E02E2E2C3324322C22246A2D7727620D731D2A2C2A
:147D6C00200EC20C9A018B010E946B3E4E5F5F4F4030E1E009
:147D80005E0738F340D0E02EC01611F0002738C023E00091B7
:147D94000201109103010E94653E25E00091020110910301B0
:147DA8000E94653E0E94803E442755271BC022270091020183
:147DBC0010910301040F151F0E94733E7801B701CB01807087
:147DD0001C01232C3324CB019070820D931D28803324280E9C
:147DE400391E28824E5F5F4F4030E1E05E0708F30880C01442
:147DF80011F0002701C001E021960C94633F0027112712C083
:147E0C00A8950E5F1F4F015010408AEF9FEFA0E0B0E0180179
:147E20004424552482159305A405B5050CF404C02090C000A7
:147E340027FEEACF0091C600089501C0A8952090C00025FED7
:147E4800FBCF0093C600089581E08EB980E18093C40088E11D
:147E5C008093C10086E88093C200CFDF0EE3E9DFCCDF0C33AA
:147E700011F504E5E4DF01E9E2DF01E7E0DF03E6DEDF04E36D
:147E8400DCDFBFDF01E2D9DF13C0A89542DF80910001909192
:147E980001018F3FEFEF9E0709F409C04DDF002319F001E282
:147EAC00C8DF02C000E4C5DFECCF22242BBE81E085BF25BE5F
:147EC0000C9400000895A990B990C990D990E990F990499151
:147ED40059916991799108957A936A935A934A93FA92EA9233
:0A7EE800DA92CA92BA92AA920895A3
:00000001FF
