:1000000008308A0000280000FF00030E8301A500CD
:100010007F08A4000A08AB008A01A40E0408A60009
:100020002008A7002108A8002208A9002308AA0088
:10003000831383128B1D1E280B183D280B1E2228AC
:100040008B183F288C308400801C28288C1841286D
:100050008B1E2C280B194328260884002708A00093
:100060002808A1002908A2002A08A3002B088A005A
:10007000250E8300FF0E7F0E09008A1159288A1170
:10008000E4288A11A8298A11A6280D29C11E25183D
:10009000313664105221BD12B0186C322022492929
:1000A000BD12B0186C32A021CC25BD12B0186C3234
:1000B00000003C140608B9003A083906BB003908AC
:1000C000BA003B08053903198E2839080539031988
:1000D0008E2839080539031D6F28BD147028BD10FE
:1000E0003C1E74280230BD06BD1C7B280430BE07B0
:1000F0000318BF0A81280430BE020030031C0130FF
:10010000BF0244083302C8003408C9004508031C74
:10011000450FC9023408C5003308C4000B108A110A
:100120002C285C08DC0AA0000310A00D2008543E17
:100130008400840A83162B08800084032A08800028
:1001400083125C08033C031CDC010800FF308100C3
:100150003D11051E3D153C1EAF280430BD06BC1DDB
:10016000BF283D1DB8280230C0070318C10ABE28A9
:100170000230C0020030031C0130C102C9283D1DFD
:10018000C528C00A0319C10AC92840080319C103B8
:10019000C0034E083302D2003408D3004F08031CBA
:1001A0004F0FD302BC18DD2853088316AB0083120F
:1001B00052088316AA00831291203408CF00330816
:1001C000CE000B118A112C28BD100519BD143C1E40
:1001D000EB280230BD06BD1CF2280430BE07031810
:1001E000BF0AF8280430BE020030031C0130BF02F1
:1001F00044083302C8003408C9004508031C450FF1
:10020000C902BC1C0C2949088316AB00831248089C
:100210008316AA00831291203408C5003308C40055
:100220008B108A112C28CD34EE34ED3A6D10D0327B
:10023000F2346F32A01EA0126C322C10413B653993
:10024000E1336510D032F2346F32A01EA0126C324E
:100250002C10CD30F834ED3A6D10D032F2346F32CC
:10026000A01EA0126C320D0500014529D227521D97
:10027000A0366937E936F536A0347310EC32F3391D
:10028000203AE8306E10613B6539E13365102F107C
:1002900033170D0500004529D227521DA0366937B6
:1002A000E936F536A03473106739E530F432721050
:1002B00074346137A030F632F230E732201520195D
:1002C000AE060A00D2205710453763286539A012C0
:1002D000301A6C2C25183436D81DA022EE31533834
:1002E00064102536641031187434F317F31DA022FE
:1002F000EE31C43974102536641031187434731615
:1003000020237732A012E4060A0043264B1045371B
:1003100063286539A012301A6C2C25183436D81D84
:10032000A022EE315338641025366410311874342D
:10033000F317F31DA022EE31C43974102536641072
:1003400031187434731620237732A012E4060A00A1
:10035000B30A0319B40AB50A0319B60A3508F43CFE
:10036000031DBA29B608031DBA29B601B501B70A9B
:100370000319B80A8C108A112C28F23271107338C4
:10038000E532641052102536E41DA032EE31A0395A
:10039000F032653220292039E13BA0126C323B104B
:1003A000653763107338E5326410521063366B1092
:1003B0002536E41D20006539721052102536E41DE3
:1003C000A037753A2029A0126C323B10E434721029
:1003D000521025320D050000D72BAD183110D43244
:1003E000733A6539A0182E18B0060A00D72BAD183D
:1003F0003210D432733A6539A0182E18B0060A00AC
:10040000D72B2D183110D432733A6539A0182E1815
:10041000B3060A00D72B2D183210D432733A65393F
:10042000A0182E18B2060A00AD16203375366C10CF
:10043000ED37E4320D050001AD16A038F530643912
:10044000613A75396510ED37E4320D050001C620BB
:10045000492645222110C23064100001D6316310B4
:10046000EC32F6326C103D102536E4060A00C62048
:10047000492645222110C23064100001473764101C
:10048000EC32F6326C103D102536E4060A00D43208
:10049000733A69376710C637F23B6139E4060A00E0
:1004A000E434733A6137E3322032693366103D1029
:1004B0002536E41DA039F0326532203269336610EA
:1004C0003D102536E4060A00C620492645222110A3
:1004D0002022E93974103D102536641620376F3A12
:1004E000201F3D102536641061376410BC1EA01219
:1004F0006C320D050001D432733A69376710C2308F
:10050000E335F73072320D050001E434733A613798
:10051000E3322032693366103D102536E41DA039E0
:10052000F03265322032693366103D102536E4061C
:100530000A00C62049264522A1060A00C6204926EF
:10054000452221102022E93974103D102536641609
:1005500020376F3A201E3D10253664106137641035
:10056000BE1EA0126C320D050001C6204926452290
:10057000A1060A00D020D3294522A1060A0063342F
:100580006137E732A0347339A030633A693B651DA7
:10059000A012E4060A007730840000080319DD2A5F
:1005A0000630A100A001A00BD32AA10BD22A7B30D8
:1005B000A000A00BD92A800BD02A0800FC3083169B
:1005C0008500FF308600E1308700811383121F13FE
:1005D0009F1783169F1383121F1483161F109F10DB
:1005E0001F159F11831294012F30A00081018130CB
:1005F00084000008C0390738800064000008C7394B
:10060000A019C03920048000FF308100953090008F
:100610008F018E010030A10005389200FF30831653
:100620009200FC308500FF308600E13087008312A5
:100630000B168B1683168C14C03083128B04071193
:100640000C3097009D0195019B018715071604301A
:10065000F600FA30F700CB22F60B292B8A15342846
:10066000831603178C170C140000000083120C086B
:100670007F3903198A2B83160313A00083120317F3
:100680000D0883160313A100831203170F088316A6
:100690000313A200200883120C1E4C2B9900831612
:1006A0002108831203178D00831603132208831277
:1006B00003178F0083168C170C14000000008312A0
:1006C0000C0D0E0D7F3903198A2B83160313A0001E
:1006D000831203170D0883160313A1008312031757
:1006E0000F0883160313A200200883120C1E762B1A
:1006F000990083162108831203178D0083160313B4
:100700002208831203178F008D0A03198F0A03131F
:10071000302B031703130800831603178C170C14D0
:10072000000000000318C62B83120C087F398316C3
:100730000313A000831203170D0883160313A100EF
:10074000831203170F0883160313A20020088312D5
:100750000C1EA82B990083162108831203178D0005
:10076000831603132208831203178F0083168C1736
:100770000C140000000083120313FE0BC02BC32BCC
:1007800083160317C62BF02B8316031783120C0D49
:100790000E0D7F3983160313A000831203170D0873
:1007A00083160313A100831203170F088316031384
:1007B000A200200883120C1EDB2B9900831621084F
:1007C000831203178D008316031322088312031765
:1007D0008F008D0A03198F0A03100313FE0B8C2B55
:1007E000080004088316A700A11FFE2BA717271EC9
:1007F000A70AA009A109A00A0319A10A210EF0382D
:10080000A300A307E23EA400323EA60021080F3950
:10081000A407A407A607E93EA500A507A507200E83
:100820000F39A507A607A50DA60DA609A60D200838
:100830000F39A607A30D0730A2000A30A607A503AB
:10084000031C1E2CA507A403031C222CA407A3032E
:10085000031C262CA307A203031C2A2CA23084000D
:1008600007302705271384032705031D402C271A6B
:10087000840A271A402C20308312A000682C83168B
:100880008407A63004020319271700088312A0006A
:10089000031D562C8316271F4F2C8312562C271A04
:1008A0006D2CA719552C2030662C83128316A71F98
:1008B000632C2D308312A000840383162713A71303
:1008C0008312682C8316A715271230308312A007D5
:1008D00020080C1E692C99008316840A271F412CBE
:1008E00083120800BF01BE01C101C001CB01CA01D2
:1008F000DE01DD010800F6080319872CF80803194A
:10090000832C0716842C071277089B008F2CF8087D
:1009100003198C2C87158D2C8711770895000800FA
:10092000BC12871ABC163C1305193C17BC13051AD8
:10093000BC173D1007183D1408000030BC1A0130E8
:10094000F701F60000303C1B0130F901F8000030DF
:10095000BC1B0130FB01FA0000303D180130FD01E5
:10096000FC00453003178D0000308F000310043069
:100970000313FE008C230D30840077088316A1003A
:10098000831276088316A0008312F12349300317DF
:100990008D0000308F00031404300313FE008C23FD
:1009A0000D30840079088316A1008312780883161D
:1009B000A0008312F1234E3003178D0000308F000A
:1009C000031005300313FE008C230D3084007B08D8
:1009D0008316A10083127A088316A0008312F123E4
:1009E000533003178D0000308F00031005300313C0
:1009F000FE008C230D3084007D088316A100831235
:100A00007C088316A0008312F1230800A101A20133
:100A1000A001A30183162108031D112D200803192D
:100A2000352D1030A20003108312FD0DFE0DA00D18
:100A3000A30D8316210883122302031D232D831681
:100A4000200883122002031C302D831620088312F5
:100A5000A002031CA303831621088312A30203141C
:100A6000A10DA20D8316A20B132D83120800F7010E
:100A7000F601FF30F900F800FB01FA01FC017C08E7
:100A8000033C031C932D03107C0D543E8400840A08
:100A90000008A30084030008F60723080318230FA7
:100AA000F70703107C0D543E8400840A0008FE0002
:100AB00084030008FD007E087902031C712D031DCC
:100AC000652D78087D020318712D03107C0D543EAE
:100AD0008400840A0008A30084030008F8002308A7
:100AE000F90003107C0D543E8400840A0008FE00C7
:100AF00084030008FD007B087E02031C912D031D6A
:100B0000852D7D087A020318912D03107C0D543E2B
:100B10008400840A0008A30084030008FA00230864
:100B2000FB00FC0A3F2DF70CF60CF70CF60C3F30DF
:100B3000F705133003178D0001308F0003101130BB
:100B40000313FE008C231030840079088316A10063
:100B5000831278088316A0008312F1231D30031737
:100B60008D0001308F00031013300313FE008C231F
:100B70001030840077088316A1008312760883164C
:100B8000A0008312F123283003178D0001308F005D
:100B9000031013300313FE008C23103084007B08F5
:100BA0008316A10083127A088316A0008312F12312
:100BB0000D300C1ED92D99000A300C1EDD2D990028
:100BC0007708FE007608FD008316A1010330A0001F
:100BD000831206252208A30079082302031C012E94
:100BE000031DF62D210878020318012E3530031756
:100BF0008D0001308F00031330230030A100202E20
:100C0000202E0310760DA200770DA3002208A1006C
:100C100023087B02031C1D2E031D122E7A082102BD
:100C200003181D2E4B3003178D0001308F00031366
:100C300030230030A100202E202E0130A100202ED4
:100C40000800460847040319282ECB01CA01492E83
:100C5000C808031D312EC908031D312ECB01CA015E
:100C6000492E3C30FE006830FD0049088316A10083
:100C7000831248088316A000831206252108CA00A3
:100C80002208CB00BD18492ECA09CB09CA0A03198C
:100C9000CB0A500851040319502EDE01DD01712EDC
:100CA000D208031D592ED308031D592EDE01DD0184
:100CB000712E3C30FE006830FD0053088316A10001
:100CC000831252088316A000831206252108DD0036
:100CD0002208DE003D19712EDD09DE09DD0A031947
:100CE000DE0A0800F81B852E0F30A000770EA00545
:100CF0000A30200203187F2E3030A007812E78089A
:100D0000A00720080C1E822E99000F30F7050A302C
:100D1000770203188D2E30308F2EF8137808F707DE
:100D200077080C1E912E990008007E08A1017D0213
:100D300003189D2E7D08A000AD2EA001083083165B
:100D4000A0008312FD0DA00D7E0820020318A00054
:100D5000A10D8316A00BA12E831208002030781E4F
:100D60003030F9007708A000F71FBD2EA009A00AB7
:100D70002008F7002D30F900F8177708FD006430DF
:100D8000FE0095262008F70030302107FA0077088A
:100D9000FD000A30FE00952630302007FC00303080
:100DA0002107FB007908A000F81DD82EF81F781144
:100DB000781AE52EF81F002F7819002F2008FA0066
:100DC000F818002F2008FB00002F30307A02031D96
:100DD000002F2008FA002030F900F81DF32E7811BA
:100DE000F814F81FF81030307B02031D002F200884
:100DF000FB002030FA00F81DF32EF810F81F7810D1
:100E0000781D062F79080C1E032F9900F81C0C2F53
:100E10007A080C1E092F9900781C122F7B080C1ED3
:100E20000F2F99007C080C1E132F99000800F60163
:100E3000BD18F60A623003178D0001308F000310D1
:100E40000B300313FE008C234708F7003730F800FF
:100E500072264608F7003730F80072264908F70076
:100E60003730F80072264808F7003730F80072264D
:100E70006C3003178D0001308F0003140930031309
:100E8000FE008C23103084004B088316A1008312CF
:100E90004A088316A0008312F123723003178D00D5
:100EA00001308F00031411300313FE008C23103027
:100EB00084003F088316A10083123E088316A00019
:100EC0008312F1237C3003178D0001308F0003144F
:100ED0000C300313FE008C237608F7001F30F80057
:100EE000AE260D300C1E722F99000A300C1E762F84
:100EF0009900F6013D19F60A853003178D0001307F
:100F00008F0003100B300313FE008C235108F700F1
:100F10003730F80072265008F7003730F800722694
:100F20005308F7003730F80072265208F7003730C0
:100F3000F80072268F3003178D0001308F000314E4
:100F400009300313FE008C23103084005E088316E2
:100F5000A10083125D088316A0008312F12395304F
:100F600003178D0001308F00031411300313FE00AE
:100F70008C231030840041088316A100831240089E
:100F80008316A0008312F1239F3003178D000130D8
:100F90008F0003140C300313FE008C237608F70037
:100FA0001F30F800AE260D300C1ED42F99000A30E9
:080FB0000C1ED82F9900080067
:1010000003081F3983005E30A00021308400831361
:101010008001840AA00B08285F30A000A030840063
:1010200083138001840AA00B1128A00184011F30C2
:101030008305203083169900A630980090308312E3
:10104000980083161F149F141F159F118312AC0163
:10105000E601E501E8016430E700EA01E9016B100F
:10106000EB106B158A11DE2A8A15061E3928BC156D
:101070003A28BC11861E3E283C113F283C15861D8F
:101080004328BC104428BC143C1D4A28BC194A28DB
:101090003C164B283C12BC1D59283C195928EC30F1
:1010A00003178D0001308F008A11031330238A1536
:1010B0008228BC1D67283C1D6728F63003178D0069
:1010C00001308F008A11031330238A158228BC193E
:1010D00075283C197528003003178D0002308F00E9
:1010E0008A11031330238A158228BC1982283C1DDB
:1010F00082280A3003178D0002308F008A110313F3
:1011000030238A15BC188E28143003178D00023046
:101110008F008A11031330238A1597281C30031778
:101120008D0002308F008A11031330238A150510B9
:1011300085100830F600FA30F7008A11CB228A15A4
:10114000F60B9B28EB116B12EB126B13EB13701069
:10115000F010701185103C19B528F301C830F20069
:101160000130F5002C30F400BB28F301AF30F20061
:10117000F501FA30F400BC1941293C19412900302D
:10118000A1001F08C73921049F005330A000A00B05
:10119000C7281F151F19CA281E08F1007108F93C3D
:1011A000031CDC28273003178D0002308F008A11C2
:1011B000031330238A15EB16F7017108F6002E3061
:1011C00003178D0002308F0003100C300313FE0054
:1011D0008A118C238A151030840077088316A100A9
:1011E000831276088316A0008A118312F1238A15D0
:1011F0000D300C1EF92899000A300C1EFD289900AC
:101200000830A1001F08C73921049F005330A000F7
:10121000A00B08291F151F190B291E08F1007108C2
:10122000053C03181D29373003178D0002308F004D
:101230008A11031330238A156B17F7017108F60022
:101240003E3003178D0002308F0003100C30031363
:10125000FE008A118C238A151030840077088316CB
:10126000A100831276088316A0008A118312F1234D
:101270008A150D300C1E3A2999000A300C1E3E29A1
:101280009900473003178D0002308F008A11031335
:1012900030238A15B401B301B801B7018A11722451
:1012A0008A15F601FE30F7000130F8008A117B2420
:1012B0008A15B808031D602937081D3C03185929F1
:1012C0008A1190248A156B1D68298A119D248A151C
:1012D000BC1C6F294B08DE004A08DD007529BC1DC7
:1012E00075295E08CB005D08CA005D084A02F60059
:1012F0004B08F7005E08031C5E0FF7027708A30097
:101300007608F71F8C297608003CA000A301770817
:10131000031C770FA3022008EE002308EF00EB1355
:101320008A1137258A15A1080319EB178A1121267E
:101330008A15F601F7010130F8008A117B248A151D
:10134000B808031DA7293708273C0318A029BC1C8F
:10135000AE293F08C1003E08C000B429BC1DB42915
:101360004108BF004008BE0040083E02F6003F08AA
:10137000F7004108031C410FF7027708A300760825
:10138000F71FCB297608003CA000A3017708031CB7
:10139000770FA3022008EC002308ED008A1117271D
:1013A0008A15503003178D0002308F000310103063
:1013B0000313FE008A118C238A15103084006D08F7
:1013C0008316A10083126C088316A0008A11831271
:1013D000F1238A15593003178D0002308F00031452
:1013E0000F300313FE008A118C238A1510308400FD
:1013F0006F088316A10083126E088316A0008A115D
:101400008312F1238A150D300C1E042A99000A302C
:101410000C1E082A9900ED1B142AED08031D362A1C
:101420006C08043C031C362AC11F192AF31F362AF4
:101430001B2AF31B252A41087302031C252A031DBE
:10144000362A72084002031C362AF51F2A2AC11FB9
:10145000362A2C2AC11B8A2A75084102031C8A2AB3
:10146000031D362A4008740203188A2AEB156430DB
:1014700003178D0002308F00031010300313FE009D
:101480008A118C238A151030840041088316A1002C
:10149000831240088316A0008A118312F1238A1553
:1014A0006D3003178D0002308F00031409300313D1
:1014B000FE008A118C238A1510308400730883166D
:1014C000A100831272088316A0008A118312F123EF
:1014D0008A15733003178D0002308F000314083013
:1014E0000313FE008A118C238A15103084007508BE
:1014F0008316A100831274088316A0008A11831238
:10150000F1238A150D300C1E832A99000A300C1E17
:10151000872A99007B3003178D0002308F008A11D3
:10152000031330238A15B401B301B801B7018A113E
:1015300072248A15F601FE30F700F8018A117B2427
:101540008A15B808031DA82A37081D3C0318A12ACC
:101550008A1190248A156B1DB02A8A119D248A1540
:10156000BC1CB72A4B08DE004A08DD00BD2ABC1DA2
:10157000BD2A5E08CB005D08CA005D084A02F6007D
:101580004B08F7005E08031C5E0FF7027708A30004
:101590007608F71FD42A7608003CA000A30177083C
:1015A000031C770FA3022008EE002308EF00701041
:1015B0008A1137258A15A108031970148A1121266A
:1015C0008A15F601F701F8018A117B248A15B808FB
:1015D000031DEE2A3708273C0318E72ABC1CF52A0E
:1015E0003F08C1003E08C000FB2ABC1DFB2A410881
:1015F000BF004008BE0040083E02F6003F08F7006A
:101600004108031C410FF7027708A3007608F71F73
:10161000122B7608003CA000A3017708031C770F6B
:10162000A3022008EC002308ED008A1117278A1571
:10163000853003178D0002308F0003101030031324
:10164000FE008A118C238A15103084006D088316E1
:10165000A10083126C088316A0008A118312F12363
:101660008A158E3003178D0002308F0003140F305F
:101670000313FE008A118C238A15103084006F0832
:101680008316A10083126E088316A0008A118312AC
:10169000F1238A150D300C1E4B2B99000A300C1EBD
:1016A0004F2B9900ED1B5B2BED08031D912B6C0854
:1016B000043C031C912B7208003CA000A30173089A
:1016C000031C730FA3022008A100A31F6A2BC11FD4
:1016D000912B6C2BC11B762B23084102031C762B0C
:1016E000031D912B40082102031C912B7408003C20
:1016F000A000A3017508031C750FA3022008A10018
:10170000C11F852BA31F912B872BA31BFC2B4108EB
:101710002302031CFC2B031D912B210840020318FC
:10172000FC2B6B16993003178D0002308F008A1145
:10173000031330238A157209F6007309F700F60ABD
:101740000319F70A7409F8007509F900F80A031972
:10175000F90A9E3003178D0002308F0003101030FD
:101760000313FE008A118C238A151030840041086F
:101770008316A100831240088316A0008A118312E9
:10178000F1238A15A73003178D0002308F00031450
:1017900009300313FE008A118C238A15103084004F
:1017A00077088316A100831276088316A0008A1199
:1017B0008312F1238A15AD3003178D0002308F009C
:1017C000031408300313FE008A118C238A1510308D
:1017D000840079088316A100831278088316A0007C
:1017E0008A118312F1238A150D300C1EF52B9900F6
:1017F0000A300C1EF92B9900EB19082C6B1A082CD7
:101800006B1B082CEB1A082CEB1B082C701C142CDF
:101810000510B53003178D0002308F008A110313B5
:1018200030238A15F0141E2C0514BA3003178D00CE
:1018300002308F008A11031330238A15851400307B
:101840003C180130F600BF3003178D0002308F00C6
:10185000031013300313FE008A118C238A157608B7
:10186000F7001F30F8008A11AE268A150D300C1EC5
:10187000372C99000A300C1E3B2C99008A119024B9
:101880008A156B1D462C8A119D248A15C830F700D5
:101890008A11CB228A15F01C532C7019512C05107B
:1018A000522C0514582C7019572C8510582C85145F
:0A18B0000430F0063E2CA22863006D
:02400E00323F3F
:00000001FF
;PIC16F873
;CRC=B91E  CREATED="04-Jul-13 14:47"
